:020000040800F2
:100000000000022021350008A9340008AD340008A2
:10001000B1340008B5340008B9340008000000000D
:10002000000000000000000000000000BD340008D7
:10003000C134000800000000C5340008C9340008BD
:1000400071350008713500087135000871350008F8
:1000500071350008713500087135000871350008E8
:1000600071350008713500087135000871350008D8
:1000700071350008713500087135000871350008C8
:1000800071350008713500087135000871350008B8
:1000900071350008713500087135000871350008A8
:1000A0007135000871350008713500087135000898
:1000B0007135000871350008713500087135000888
:1000C0007135000871350008713500087135000878
:1000D0007135000871350008713500087135000868
:1000E0007135000871350008713500087135000858
:1000F0007135000871350008713500087135000848
:100100007135000871350008713500087135000837
:100110007135000871350008713500087135000827
:100120007135000871350008713500087135000817
:100130007135000800000000000000007135000863
:1001400071350008713500087135000871350008F7
:1001500071350008713500087135000871350008E7
:1001600071350008713500087135000871350008D7
:100170007135000871350008000000000000000023
:0801800071350008713500081B
:1001880010B5054C237833B9044B13B10448AFF3C9
:1001980000800123237010BD7800002000000000BB
:1001A800A0420008084B10B51BB108490848AFF336
:1001B80000800848036803B910BD074B002BFBD02B
:1001C800BDE81040184700BF000000007C00002078
:1001D800A0420008780000200000000053B94AB986
:1001E800002908BF00281CBF4FF0FF314FF0FF3037
:1001F80001F0ECB8ADF1080C6DE904CE00F006F89A
:10020800DDF804E0DDE9022304B070472DE9F0478A
:100218008C460E460446089D002B50D18A4217464C
:100228006CD9B2FA82FEBEF1000F0BD0CEF12004D9
:1002380020FA04F401FA0EF644EA060C02FA0EF764
:1002480000FA0EF44FEA1749220CBCFBF9F01FFA2A
:1002580087F809FB10C642EA064600FB08F3B342DA
:1002680009D9F61900F1FF3280F02281B34240F239
:100278001F8102383E44F61AA2B2B6FBF9F309FB15
:10028800136642EA064403FB08F8A04509D9E419B5
:1002980003F1FF3280F00A81A04540F20781023B5A
:1002A8003C44C8EB040443EA00400021002D62D01E
:1002B80024FA0EF400232C606B60BDE8F0878B42B3
:1002C80007D9002D55D0002185E841000846BDE832
:1002D800F087B3FA83F1002940F09080B34202D34B
:1002E800824200F2F880841A66EB03060120B446C5
:1002F800002D40D085E81010BDE8F08712B901271D
:10030800B7FBF2F7B7FA87FEBEF1000F35D1F31B42
:100318004FEA17481FFA87FC0121B3FBF8F0220CBB
:1003280008FB103642EA06460CFB00F3B34207D935
:10033800F61900F1FF3202D2B34200F2CE80104625
:10034800F61AA2B2B6FBF8F308FB136642EA0644B3
:100358000CFB03FCA44507D9E41903F1FF3202D2D0
:10036800A44500F2B5801346CCEB040443EA0040F0
:100378009CE729462846BDE8F087CEF1200106FA19
:100388000EF307FA0EF720FA01F94FEA1748CE40A4
:1003980049EA0309B6FBF8FA4FEA194408FB1A665A
:1003A8001FFA87FC44EA06430AFB0CF29A4200FA59
:1003B8000EF40AD9DB190AF1FF3180F087809A42DE
:1003C80040F28480AAF1020A3B449B1A1FFA89F979
:1003D800B3FBF8F108FB113349EA034301FB0CF6C0
:1003E8009E4207D9DB1901F1FF326BD29E4269D9CF
:1003F80002393B449B1B41EA0A418EE7C1F1200EBA
:1004080022FA0EF48B40234320FA0EF706FA01F481
:100418004FEA134C26FA0EF63C43B6FBFCF9270CC0
:100428000CFB19661FFA83F847EA064609FB08F72A
:10043800B74202FA01F200FA01FA08D9F61809F1EE
:10044800FF3041D2B7423FD9A9F102091E44F61B39
:10045800A0B2B6FBFCF40CFB146640EA064704FBAA
:1004680008F8B84507D9FF1804F1FF3028D2B84575
:1004780026D9023C1F4444EA0940C8EB0707A0FB01
:1004880002894F4544464E4614D329D065B3BAEB8A
:10049800040367EB060707FA0EFECB40CF404EEA8F
:1004A800030385E888000021BDE8F0871346F8E6D5
:1004B8001046E0E6B8EB020469EB03060138E5E70D
:1004C8000446D8E7114695E78146C0E78A467CE7A7
:1004D800023B3C4448E708460AE702383E442FE717
:1004E800C245E7D33E46D1E72946BDE8F08700BFBD
:1004F80003685A004CBF43F0004323F000431844FC
:10050800704700BF61B32DE9F84F01F1FF3A9046FB
:100518000646D146002707EB090404EBD47464109F
:10052800E50071190846FFF7E3FFA245834605F188
:100538000800304409D0FFF7DBFFC34500F1FF3066
:1005480005D8404509D2671CE5E7C34505D9A74248
:1005580002D004F1FF39DEE700210846BDE8F88F34
:1005680008467047012807D0022807D0044B002806
:100578000CBF184600207047024870470248704771
:10058800790C00087D0C0008810C000830B5244B5C
:1005980083B004468D1E7BB301A92846AFF30080C3
:1005A80020B301992A46FFF7ADFF0146F0B1FFF7E6
:1005B8009FFF4B68A064012B12D0002B01F10400AF
:1005C80020DBFFF795FF0023E06423650368002B19
:1005D8001CDBFFF78DFF00232061184603B030BDF8
:1005E800002323610523184603B030BD002323618F
:1005F8000923184603B030BD0A490B48091AC91027
:100608000191CFE70123E0642365DFE7C3F30360CB
:10061800FFF7A8FF0028206114BF00230923DCE7A7
:100628000000000060470008504500080368DA072A
:1006380010B5044606D49B0700F1480009D500F020
:1006480059FC2368590709D51A070ED5DB0613D5B7
:1006580010BD00F047FC23685907F5D404F1D00019
:1006680000F050FC23681A07F0D404F5A87000F0D5
:1006780051FC2368DB06EBD404F5E870BDE81040B4
:1006880000F08CBC03680BB11844704718467047DB
:1006980009207047704700BF70B504460D4608E052
:1006A8002B6C63612A462369214601209847082854
:1006B80008D1296C2046FFF769FF06460028EFD0CD
:1006C80003F07CFC0728FBD13046296CFFF7E2FFDA
:1006D800281D00F0FBFB00BF2DE9F0470C1D064666
:1006E80017460FCCADF5727D03AD0FC50FCC0FC506
:1006F8000FCC0FC594E80F0002ACD6F80C80D6F8E2
:10070800189085E80F0000233046216C2360FFF71E
:100718003DFF002F054614BF0A2709277DB1A36BAB
:1007280047F010018DE81002324663640120334619
:10073800C04778BB28460DF5727DBDE8F087236C6D
:1007480073614FF4F07221467AA803F075FC33699F
:100758007AAA314638469847889B82468DE8100227
:1007680039466364324633460120C04790B94FF496
:10077800F0727AA9204603F05FFCBAF1080F06D19F
:10078800216C3046FFF702FF09270546C6E7BAF194
:10079800070F04D009200DF5727DBDE8F0872846C3
:1007A800216CFFF777FF03A800F090FB406C7047BF
:1007B800F0B5CB6B0B640E1D0F4604460FCEF9B097
:1007C80001AD0FC50FCE0FC50FCE0FC596E80F00B0
:1007D8004FF0FF3685E80F00009606E023696A4669
:1007E800214698470828054608D110992046FFF762
:1007F800CDFE0028F2D0092079B0F0BD6846FFF799
:1008080015FF062DF7D139462046FFF745FF00BFF3
:1008180030B4DD6BC160826119461D64002230BCB2
:100828005AE700BF70B5C66843690B6426B1012258
:10083800FFF752FF03F0C2FB03690A4604460D4660
:10084800014602209847072807D0082803D12946DF
:100858002046FFF721FF03F0B1FB3046296CFFF774
:1008680019FF281D00F032FBC2681AB1CA6B0A646E
:10087800002231E79CE700BF704700BF836813B1CF
:10088800014601201847704700B5042907D8DFE85A
:1008980001F00309060909000BB90F2A05D902203E
:1008A8005DF804FB01205DF804FB00EB82021846AA
:1008B8005368019A13605DF804FB00BF10B584B05B
:1008C800002303AC0A4600941946FFF7DDFF03989E
:1008D80004B010BD00B5042907D8DFE801F003090A
:1008E800060909000BB90F2A05D902205DF804FB97
:1008F80001205DF804FB019900EB82020968516050
:1009080018465DF804FB00BF10B584B004AC0023A2
:1009180044F8042D0A4600941946FFF7DBFF04B09B
:1009280010BD00BFF0B5D36B1364151D07460E4606
:100938000FCDADF50F7D17AC0FC40FCD0FC40FCD84
:100948000FC495E80F004FF0FF3584E80F001695A7
:1009580010E016A8FFF7D8FF314616A8B84716AA20
:10096800694678B9049B08209847052804460AD0A8
:10097800092807D026996846FFF708FE6A460C2121
:100988000028E6D0092416A8FFF750FE20460DF5EA
:100998000F7DF0BD2DE9F04F0D46C96C8BB00C1DD5
:1009A800096807919146089400F0030B1E46002B36
:1009B80064D10902032307918DF825608DF824304E
:1009C8002B6DBBF1020F08BFAC6B13F0010343D1D1
:1009D80000F00800C2B2039201932768002F3DD0AF
:1009E800022E47D02788B4F802800434AB6C28F074
:1009F800010A0F2148469A44FFF760FF824537D81D
:100A080027F001039A4450452CBF002001204FEAEB
:100A1800480808F0020807F0010748EA0708B8F193
:100A2800010F41D038D3B8F1020F1DD1236823F04C
:100A380000420292BBF1000F79D130B1039900292D
:100A480000F08180002A00F0A880002B79DB029B4F
:100A5800013304EB8304C0E700230193022E40DD39
:100A6800FFF716FE002842D009200BB0BDE8F08F32
:100A78000020CCE7D4F804800834B7E7022B9FDCC9
:100A88000B0CDAB209048DF82530022304EB82043A
:100A980007918DF8243093E7BBF1000F02D00028AE
:100AA80040F0B080043498E7BBF1000F26D1B0B114
:100AB80094E80C00991C4FEAD272D5D005F1580180
:100AC8000133069100F09480201DFFF7DBFD06AB93
:100AD8000146284603F0DAF8002840F0B8800834C8
:100AE8007BE707A9484600F0F3FA0028BCD1019B30
:100AF800002B5CD108200BB0BDE8F08F0D214846D3
:100B08002F6AFFF7DBFE8742E9D1AB6A9C42E6D148
:100B18002046FFF7EDFC0F2102464846FFF7F4FE9A
:100B280048462A460021FFF7EFFE07209DE70D21E2
:100B380048462F6AFFF7C2FE874248D02368002B39
:100B480085DA043483E7029B3BB305F15803271D7C
:100B5800CDF810B0DDF80C80DDF808A00596A346A6
:100B68001C4602E0B245B04616D038460694FFF758
:100B780089FD06AB01460022284603F087F808F1F4
:100B8800010604370028EDD0029B059E43455C46CC
:100B9800DDF810B0D2D100E05C4648460D21FFF7E1
:100BA8008DFE069B2862AC626B6206205DE70F2112
:100BB8004846FFF783FE0E2102464846FFF7A4FE8B
:100BC80048462A4A0F21FFF79FFE07204DE7AB6AE8
:100BD8009C42B3D104220027A3180299A962EF62AC
:100BE8002A636B632368BB421FDB012301932EE753
:100BF80048460D21FFF762FE2862069B6B62AC62D5
:100C0800062032E72046FFF773FC04340646AC633F
:100C1800284603F099F800283FF426AF48463246A4
:100C28000F21FFF771FE07201FE70846013004EB8C
:100C38008000FFF75DFC0F2102464846FFF764FE7F
:100C480048462A463946FFF75FFE07200DE7074664
:100C58000D214846FFF732FE022F2862CDD12B46E0
:100C6800069A43F82C2F6B62C9E700BFF53E0008CF
:100C780000238FE601238DE602238BE6F0B50446B8
:100C8800C5B004290DD8DFE801F057030C310F0077
:100C9800012B4FEA124695B266D17219102A40F21A
:100CA8009F80022045B0F0BD002BFAD1102AF8D859
:100CB8002368D80600F1C98022AE3046019200F0C0
:100CC80077F9A06B019A0023012505FA03F1114277
:100CD80003D0016846F8231004300133042BF4D103
:100CE800A063304600F05AF90020DBE7032BD8D187
:100CF800150C97B2EB19102BD3D823681E0700F1F7
:100D0800B88022AE30467F0000F026F906EBC50217
:100D18007B1EA56B57B1043A294651F8040B42F8DB
:100D2800040F013B581CF8D105EB87053046A56335
:100D380000F0F0F80020B5E7002BB2D1A56B97B210
:100D4800201D012606FA03F1394203F1010302D0FE
:100D5800296801600435102B00F10400F2D112F467
:100D680000503BD1A5639DE7052B9AD17719202F19
:100D780097D80F2E65D92F46002D48D12A4600272F
:100D8800002AA06B71DD00EBC202014644A800EB0B
:100D9800C6008C3851F8045B40F8045F9142F9D1E1
:100DA800084697B1102E324644A938BF102201EBED
:100DB800C202A2F5C4727900043A00EB810150F82E
:100DC800045B42F8045F8142F9D1012B47D00F2E12
:100DD800A16332D917B102A800F094F8002061E7A6
:100DE8000F2E3FF65EAF00272268D1070DD522F0FF
:100DF8000101052B21600193204652D022F0030205
:100E080040F8482B00F072F8019B002F51D022685F
:100E1800510736D4012B3ED00F2E06D822A80193B5
:100E280000F06CF8019B002FA8D002A8019300F0F5
:100E38006DF8019BC6F11002A2E722A800F05AF84B
:100E4800C8E7102FCFD9103FCEE723F01003236057
:100E580004F5E870019200F0ABF8019A2CE7043130
:100E6800A16322A800F03EF8B8E7002F9AD1014606
:100E7800ABE723F00803236004F5A87000F06CF8D2
:100E88003FE7204622F0040240F8D02B019300F0FF
:100E98003DF8019BBEE722A8019300F027F8019BCB
:100EA800C8E741F0020140F8481B00F027F8019B11
:100EB800ABE7012B03D00F2E3FF660AFAEE722A8B9
:100EC800019300F013F8019B58E700BF00F13401CB
:100ED80091E838009C46A6464CF8045D90E8FF0F60
:100EE800E54600BD90EC210B704700BF80EC210B5C
:100EF800704700BF90EC200B704700BF80EC200BC0
:100F0800704700BFD0EC200B704700BFC0EC200B2F
:100F1800704700BFF0EC0201F0EC0211F0EC022186
:100F2800F0EC0231F0EC0241F0EC0251F0EC02611D
:100F3800F0EC0271F0EC0281F0EC0291F0EC02A10D
:100F4800F0EC02B1F0EC02C1F0EC02D1F0EC02E1FD
:100F5800F0EC02F1704700BFE0EC0201E0EC021196
:100F6800E0EC0221E0EC0231E0EC0241E0EC02515D
:100F7800E0EC0261E0EC0271E0EC0281E0EC02914D
:100F8800E0EC02A1E0EC02B1E0EC02C1E0EC02D13D
:100F9800E0EC02E1E0EC02F1704700BFB0FC018137
:100FA800B0FC0191B0FC01A1B0FC01B1704700BFD9
:100FB800A0FC0181A0FC0191A0FC01A1A0FC01B151
:100FC800704700BFEC4600B52DE900502DE9FF1F22
:100FD8004FF000032DE90C0001A9FFF7E9FBDDF84C
:100FE80040E012B0704700BFEC4600B52DE9005054
:100FF8002DE9FF1F4FF000032DE90C0001A9FFF7B1
:1010080011FCDDF840E012B0704700BFEC4600B5B7
:101018002DE900502DE9FF1F4FF000032DE90C00CA
:1010280001A9FFF721FCDDF840E012B0704700BFCE
:10103800EC4600B52DE900502DE9FF1F4FF00003E5
:101048002DE90C0001ABFFF7E3FBDDF840E012B03F
:10105800704700BFEC4600B52DE900502DE9FF1F91
:101068004FF000032DE90C0001AAFFF75BFCDDF847
:1010780040E012B0704700BF037A1BB9437A43B906
:10108800B02070475A1E036802721A020260180ED6
:1010980070474268013B10B4437213680321141D62
:1010A80001721A02446002605DF8044B180E704722
:1010B80000B585B003AA0023009219460C22FFF759
:1010C800E3FB039805B05DF804FB00BFF0E700BF41
:1010D8002DE9F043064685B00D464FF00008284636
:1010E800FFF7CAFFB028044600F0B48020F07F0361
:1010F80013F0FF0320D000F0F003802B7AD0902B60
:1011080035D0A02B48D0B02B5CD0C02B00F0898004
:1011180000F0F803D02B0BD100F00702013242F4A3
:101128000022052301213046FFF7A8FD0028D6D06C
:10113800092005B0BDE8F0830DF10C0919468700B8
:10114800CDF800900D223046FFF79EFBFFB2039BBF
:10115800CDF80090043760064CBFDF1BFF18002352
:1011680019460D2230460397FFF7B4FBB7E700F0A6
:101178000D030D2BDCD003AF002300F00F0219463E
:1011880000973046FFF780FB0023009719460D2291
:101198003046FFF79FFBA2E7C2434FF47F6302F09C
:1011A800070243FA02F2010702EA03024FF00003C2
:1011B80048BF42F4804219463046FFF75FFD0028D9
:1011C800B6D18CE7B1284AD0B22853D0B32800F062
:1011D800818000F0FC03B42BAAD000F00702013292
:1011E800012342F4002219463046FFF747FD002844
:1011F8009ED174E72846FFF73FFF24022043B0F54D
:10120800004F95D004010023A2B219463046FFF7DB
:1012180035FD00288CD114F4004F18BF4FF0010899
:101228005DE7C62862D0C7286CD000F0F803C02B51
:101238007BD0C82800F09180C9287FF479AF284670
:10124800FFF71AFF020300F00F0002F470220130CA
:10125800024366E7B8F1000F6ED0002069E7284620
:10126800FFF70AFF024600283FF462AF10F0F003D0
:10127800B9D05DE700230DF10C090D221946CDF810
:1012880000903046FFF700FB2846FFF7F5FE020600
:101298004FF002040CD5039B00F07F00A0400344EC
:1012A80028460393FFF7E8FE030604F10704F2D487
:1012B800039BCDF8009000F07F0000FA04F203F5DC
:1012C80001740023144419460D2230460394FFF795
:1012D80001FB04E72846FFF7CFFE010300F00F00EB
:1012E80001F47021421C01230A437CE72846FFF7DA
:1012F800C3FE010300F00F0001F47021421C032318
:101308000A4370E72846FFF7B7FE024600283FF475
:101318000FAF10F0F0037FF40BAF04213046FFF756
:10132800ADFC00287FF404AFD9E600F00F020132CB
:10133800032342F4202256E703AC43460E224146DB
:1013480000943046FFF7A0FA0094304643460F2237
:101358004146FFF7BFFA4046EBE62846FFF78CFE0A
:1013680000F0F00200F00F031032013343EA0232BA
:10137800D7E600BF10B5C36C84B05A6803208DF857
:101388000C00DC798DF80D4012020833084601A9DB
:1013980001920293FFF79CFE04B010BD08B5FFF759
:1013A80095FE806C08BD00BF08B5FFF78FFEC36CC3
:1013B800D87903EB8000083008BD00BF08B502F0FB
:1013C800FDFD00BF08B5FFF7F9FF00BF704700BF7C
:1013D80010F8012B11F8013B012A28BF9A42F7D0D7
:1013E800D01A7047014B0360704700BFD042000815
:1013F800704700BF704700BF704700BF704700BF0D
:1014080010B50446FFF7EEFF204602F0AEF820467E
:1014180010BD00BF014B0360704700BFD0420008F9
:101428004368586A704700BF43685962704700BFF5
:1014380010B50446024B0360FFF7D4FF204610BDE9
:10144800F042000810B50446FFF7F2FF204602F00C
:101458008CF8204610BD00BF08B51821043000F0F4
:1014680087FD08BD08B51821043000F0A5FD08BDAA
:10147800F0B58DB004460F4616461D46FFF7CAFF65
:10148800184B23606760A6600023E36025616361F1
:1014980001220392049305920693079308930992F5
:1014A8000A930B93251D03A9284600F063FC18B185
:1014B80019210D4800F068F800230193029301A94F
:1014C800284600F0E3FA48B12021074800F05CF80C
:1014D80004E02046FFF786FF02F0B4FB20460DB07B
:1014E800F0BD00BFF04200081443000830B589B0D1
:1014F80000240094214B1A6B42F004021A631A6B01
:1015080002F004020092009A01941A6B42F0010260
:101518001A631A6B02F001020192019A02941A6B83
:1015280042F002021A631B6B03F002030293029B50
:10153800134D22464EF23E01284600F09DFE4EF223
:101548003E030393012304930594069403A92846B4
:1015580000F0B2FD4FF4805303930494059403A95B
:10156800284600F0A9FD4FF4006303930494059402
:1015780003A9044800F0A0FD09B030BD00380240BE
:101588000004024000000240FEE700BF08B50B4817
:101598000B4B03600B4B436000238360C3604FF425
:1015A8008042026143618361C361036201F0EEF925
:1015B80018B1FE210448FFF7E7FF08BD940000209A
:1015C80000580040A08601004043000800B585B0DF
:1015D8001448154B036000234360836003618361F3
:1015E8000362C362114A8262C3600122C26103635B
:1015F800426101F0B7FC18B1E0210D48FFF7C4FFC4
:101608000A230093012301930023029369460548A6
:1016180001F0D2FC18B1EA210548FFF7B5FF05B083
:101628005DF804FBE8000020002001400100000FE5
:101638004043000800B58BB01F48204B03600023CF
:1016480043608360C360036100F078FB20B140F21F
:1016580079111B48FFF798FF00230893099308A9FD
:10166800154800F013FA20B14FF4C0711448FFF781
:101678008BFF6023019300230293039305930822B1
:1016880001A90D4800F0F6FB20B140F289110C4881
:10169800FFF77AFF0C2201A9074800F0EBFB20B105
:1016A8004FF4C7710648FFF76FFF034801F076FE55
:1016B8000BB05DF804FB00BF20020020000C0040C6
:1016C8004043000800B591B02B482C4B0360002321
:1016D80043608360C3600361436100F02FFB20B166
:1016E80040F2A5112648FFF74FFF00230E930F93F2
:1016F8000EA9214800F0CAF920B14FF4D67120484C
:10170800FFF742FF602307930023089309930A9386
:101718000B930C930D93082207A9174800F0AAFB16
:1017280020B14FF4DC711648FFF72EFF0C2207A9F1
:10173800114800F09FFB20B140F2BD111048FFF79F
:1017480023FF0023009301930293039304934FF420
:101758000052059206936946074800F0C1F920B186
:1017680040F2C9110648FFF70FFF034801F016FEC3
:1017780011B05DF804FB00BF5C02002000040140CA
:101788004043000800B593B02448254B036000236C
:1017980043608360C360036100F0D0FA20B14FF466
:1017A80089712048FFF7F0FE0122099200230A936D
:1017B8000B920C930D930E930F921093119309A90A
:1017C800164800F0D7FA20B14FF490711548FFF78A
:1017D800DBFE00230793089307A9104800F056F989
:1017E80020B140F227110F48FFF7CEFE6023009387
:1017F800002301930293049308226946074800F0E6
:1018080039FB20B14FF498710648FFF7BDFE034835
:1018180001F0C4FD13B05DF804FB00BFA80100206F
:10182800000400404043000808B50B480B4B036018
:101838004FF4E133436000238360C36003610C22EB
:1018480042618361C36101F0C5FA20B14FF4FF71B1
:101858000348FFF799FE08BD9802002000100140D8
:101868004043000808B50848084B0360002343605C
:101878008360C360036100F045FA20B140F2DB11D8
:101888000348FFF781FE08BD30010020001C00401E
:101898004043000808B50848084B0360002343602C
:1018A8008360C360036100F02DFA20B140F2EB11B0
:1018B8000348FFF769FE08BD6C01002000200040C6
:1018C8004043000800B58BB02A482B4B0360002327
:1018D80043608360C360036100F030FA20B140F2D6
:1018E80045112648FFF750FE00230893099308A9DD
:1018F800204800F0CBF820B14FF4A6711F48FFF73D
:1019080043FE60230193002202920392059201A9EB
:10191800184800F0AFFA20B140F255111748FFF708
:1019280033FE04220DEB0201124800F0A3FA20B1A5
:101938004FF4AD711148FFF727FE082201A90D48A1
:1019480000F098FA20B140F25F110C48FFF71CFE36
:101958000C2201A9074800F08DFA20B14FF4B271AA
:101968000648FFF711FE034801F018FD0BB05DF8BB
:1019780004FB00BFE40100200008004040430008C9
:1019880000B595B000230193234A116C41F08051B2
:101998001164126C02F080520192019A02931F4A5C
:1019A800116841F480411160126802F48042029289
:1019B800029A0222089201220B9210220C920E9394
:1019C80008A800F05FFC18B1AD211548FFF7DCFD51
:1019D8000F2303930021049105910691079103A811
:1019E80000F08EFE18B1BB210D48FFF7CDFD00F0C9
:1019F80037FF0C4BA3FB0030800900F09BFF04204D
:101A080000F0AEFF002211464FF0FF3000F060FFFB
:101A180015B05DF804FB00BF0038024000700040BC
:101A280040430008D34D621010B500F019FBFFF7D2
:101A3800A7FFFFF75BFDFFF7A9FDFFF7C7FDFFF75E
:101A4800F9FDFFF73FFEFFF79DFEFFF7EDFEFFF7FD
:101A580009FFFFF71FFFFFF735FF402002F0A4F84A
:101A6800044600231A464FF08041FFF701FD236822
:101A78009B682046984723681B6920469847FAE7E1
:101A8800204601F072FD02F0DDF800BF90F8383012
:101A9800012B21D030B4012280F83820022380F8AD
:101AA80039300468636823F070036360046865680C
:101AB8000B682B4363600468A36823F08003A3606A
:101AC8000468A5684B682B43A36080F8392000237D
:101AD80080F83830184601E00220704730BC704763
:101AE80090F83830012B25D0012380F83830CB68A6
:101AF80023F440728B68134323F480624B681343CA
:101B080023F400620B68134323F480520B691343D8
:101B180023F400524B69134323F480438A69134327
:101B280023F40043134302685364002380F83830D9
:101B3800184670470220704770B4036A23F0010307
:101B48000362036A4668826922F073020C6842EAFB
:101B5800040523F002028B6813430C4CA04202D008
:101B68000B4A90420BD123F00803CA68134323F0B1
:101B7800040326F440764A6932438E691643466068
:101B880085614A684263036270BC70470000014087
:101B98000004014030B4036A23F480730362036ACB
:101BA8004568C26922F073020C68224323F400736B
:101BB8008C6843EA04230E4CA04203D004F58064E9
:101BC800A0420ED123F40063CC6843EA042323F433
:101BD800806325F440554C6945EA04158C6945EA4B
:101BE80004154560C2614A68C263036230BC70472D
:101BF8000000014030B4036A23F480530362036A8F
:101C08004468C26922F4E6420D6842EA052223F4D8
:101C180000538D6843EA0533094DA84203D005F502
:101C28008065A84204D124F480444D6944EA8514AF
:101C38004460C2614A680264036230BC704700BFF6
:101C48000000014003682E4A904212D0B0F1804F44
:101C58000FD0A2F57C4290420BD002F580629042F0
:101C680007D002F58062904203D002F57842904294
:101C780003D123F070034A681343214A90422AD0C3
:101C8800B0F1804F27D0A2F57C42904223D002F5D4
:101C9800806290421FD002F5806290421BD002F50C
:101CA8007842904217D002F57052904213D002F554
:101CB800806290420FD002F5806290420BD0A2F56C
:101CC8009832904207D002F58062904203D002F524
:101CD8008062904203D123F44073CA6813430360BF
:101CE8008B68C3620B688362054B984203D003F587
:101CF8008063984201D10B690363012343617047F4
:101D080000000140C0B110B5044690F8393013F016
:101D1800FF0F04D1002380F8383001F015FB0223AF
:101D280084F83930214651F8040BFFF78BFF012363
:101D380084F83930002010BD01207047C0B110B5BB
:101D4800044690F8393013F0FF0F04D1002380F8CF
:101D5800383001F09BFA022384F83930214651F8D3
:101D6800040BFFF76FFF012384F83930002010BD02
:101D780001207047002848D0F8B505460C4690F871
:101D8800393013F0FF0F04D1002380F8383001F008
:101D980057FA022385F839302A68936823F0070335
:101DA8009360294651F8040BFFF74CFF29688868AF
:101DB8008B690F6A2268104323F4407323F00303EE
:101DC800A268A66942EA0622134323F47C4323F05F
:101DD800FC03E668E26946EA02263343226A1203F4
:101DE800266942EA0612134327F0AA076668626961
:101DF80046EA02123A43886029688B612B681A62A6
:101E0800012385F839300020F8BD0120704700BF54
:101E180030B4036A23F010030362036A44688269DA
:101E280022F4E6420D6842EA052223F020038D6879
:101E380043EA05130E4DA84203D005F58065A84274
:101E48000ED123F08003CD6843EA051323F0400345
:101E580024F440644D6944EA85048D6944EA8504A4
:101E6800446082614A688263036230BC704700BF85
:101E78000000014038B590F83830012B66D00D4687
:101E88000446012380F83830022380F839300C2AC0
:101E980055D8DFE802F0075454541A5454542E54B9
:101EA800545441000068FFF747FE2268936943F0E5
:101EB800080393612268936923F0040393612268FD
:101EC80091692B690B43936139E00068FFF7A0FF24
:101ED8002268936943F4006393612268936923F449
:101EE8008063936122689369296943EA01239361B6
:101EF80025E00068FFF74EFE2268D36943F0080327
:101F0800D3612268D36923F00403D3612268D169BD
:101F18002B690B43D36112E00068FFF76BFE226860
:101F2800D36943F40063D3612268D36923F48063DF
:101F3800D3612268D369296943EA0123D361012364
:101F480084F83930002084F8380038BD022038BDC4
:101F580010B4012303FA01F4036A23EA04030362B9
:101F6800036A8A401A4302625DF8044B704700BF57
:101F780010B5044611B1042906D00BE00122002156
:101F88000068FFF7E5FF0FE0012204210068FFF772
:101F9800DFFF09E0012200210068FFF7D9FF0122D5
:101FA80004212068FFF7D4FF2268136843F0010377
:101FB8001360002010BD00BF10B5044611B10429FC
:101FC80006D00BE0002211460068FFF7C1FF0FE0C2
:101FD800002204210068FFF7BBFF09E00022114638
:101FE8000068FFF7B5FF002204212068FFF7B0FF63
:101FF8002368196A41F21112114208D1196A40F294
:102008004442114203D11A6822F001021A600020EA
:1020180010BD00BF10B504460E4B18784FF47A7304
:10202800B3FBF0F30C4A1068B0FBF3F000F082FC4D
:1020380058B90F2C0BD8002221464FF0FF3000F082
:1020480047FC064B1C60002010BD012010BD01207C
:1020580010BD00BF04000020080000200000002080
:1020680008B50B4B1A6842F400721A601A6842F4F9
:1020780080621A601A6842F480721A60032000F0C5
:1020880015FC0020FFF7C6FF01F05AF8002008BD34
:10209800003C0240034A1368034909780B44136063
:1020A800704700BFD802002004000020014B1868C8
:1020B800704700BFD8020020F0B583B000240F2C71
:1020C80000F2CF800123A3400A6803EA0205AB426D
:1020D80040F0C5804A68022A01D0122A10D1E608C9
:1020E800083650F826C004F0070297000F22BA40BD
:1020F8002CEA020E0A69BA404EEA020240F826208B
:10210800026867000326BE40F64302EA060E4A68E4
:1021180002F00302BA404EEA020202604A6802F183
:10212800FF3EBEF1010F03D9112A01D0122A10D1A6
:10213800826806EA020ECA68BA404EEA0202826063
:10214800426822EA03034A68C2F30012A2401A4313
:102158004260C3681E408B68BB403343C3604B6812
:1021680013F0805F7BD0002301933F4B5A6C42F4FD
:1021780080425A645B6C03F480430193019BA60878
:10218800B21C3A4B53F8227004F003039B000F2251
:102198009A4027EA0207364A90421DD002F580622B
:1021A80090421BD002F58062904219D002F58062FD
:1021B800904217D002F58062904215D002F58062F5
:1021C800904213D002F58062904211D002F58062ED
:1021D80090420FD107220EE000220CE001220AE013
:1021E800022208E0032206E0042204E0052202E0BD
:1021F800062200E0082202FA03F33B4302361B4A98
:1022080042F826301B4B1A68EB4302EA03064F6874
:1022180017F4803F01D045EA0206164A1660526854
:1022280003EA02064F6817F4003F01D045EA0206A8
:10223800104A5660926803EA02064F6817F4801F36
:1022480001D045EA02060B4A9660D26813404E68F0
:1022580016F4001F01D045EA0203064AD360013490
:102268002DE703B0F0BD00BF003802400038014040
:1022780000000240003C01400AB181617047090436
:1022880081617047002800F0C18170B582B00446B2
:10229800036813F0010F63D0984B9B6803F00C039D
:1022A800042B0CD0954B9B6803F00C03082B08D12A
:1022B800924B5B6813F4800F05D1002304E00123DF
:1022C80002E0002300E0012363B18C4A126812F493
:1022D800003F03D0626812B1002300E00023002B06
:1022E8003ED095E16368B3F5803F05D1834A136812
:1022F80043F48033136015E0B3F5A02F09D17F4B69
:102308001A6842F480221A601A6842F480321A600D
:1023180008E07A4B1A6822F480321A601A6822F4AC
:1023280080221A6063686BB1FFF7C0FE0546734BE5
:102338001B6813F4003F13D1FFF7B8FE401B642855
:10234800F5D967E1FFF7B2FE05466C4B1B6813F43D
:10235800003F05D0FFF7AAFE401B6428F5D95BE1D2
:10236800236813F0020F5BD0644B9B6813F00C0FCB
:102378000CD0624B9B6803F00C03082B08D15F4B11
:102388005B6813F4800F05D0002304E0012302E00A
:10239800002300E00123B3B1584A126812F0020F7B
:1023A80004D0E268012A02D1002300E00023002BB8
:1023B80040F03481514A136823F0F803216943EA55
:1023C800C10313602CE0E368CBB101224C4B1A60C7
:1023D800FFF76CFE0546494B1B6813F0020F05D149
:1023E800FFF764FE401B0228F5D919E1434A136838
:1023F80023F0F803216943EAC103136010E00022C7
:102408003F4B1A60FFF752FE05463C4B1B6813F022
:10241800020F05D0FFF74AFE401B0228F5D901E15B
:10242800236813F0080F23D0636983B10122354B69
:102438001A60FFF73BFE0546304B5B6F13F0020F47
:1024480016D1FFF733FE401B0228F5D9ECE0002235
:102458002C4B1A60FFF72AFE0546284B5B6F13F0DA
:10246800020F05D0FFF722FE401B0228F5D9DDE058
:10247800236813F0040F7AD0204B1B6C13F0805F95
:102488000DD1002301931D4B1A6C42F080521A643F
:102498001B6C03F080530193019B012500E000258C
:1024A800194B1B6813F4807F12D1174A136843F441
:1024B80080731360FFF7FAFD0646134B1B6813F48D
:1024C800807F05D1FFF7F2FD801B0228F5D9AFE028
:1024D800A368012B05D1094A136F43F00103136761
:1024E8001DE0052B12D1054B1A6F42F004021A6742
:1024F8001A6F42F001021A6711E000BF003802406B
:1025080000004742800E474200700040524B1A6F4D
:1025180022F001021A671A6F22F004021A67A368F0
:102528007BB1FFF7C3FD06464B4B1B6F13F0020F41
:1025380017D1FFF7BBFD801B41F288339842F3D9CE
:1025480078E0FFF7B3FD0646434B1B6F13F0020F0D
:1025580007D0FFF7ABFD801B41F288339842F3D9CF
:102568006AE025B13C4A136C23F080531364A369D5
:10257800002B63D0384A926802F00C02082A5FD018
:10258800022B31D10022354B1A60FFF78FFD05462B
:10259800314B1B6813F0007F05D0FFF787FD401B08
:1025A8000228F5D94EE0E269236A1343626A43EAD6
:1025B8008213A26A5208013A43EA0243E26A43EAF2
:1025C8000263254A53600122244B1A60FFF76EFD0F
:1025D8000446214B1B6813F0007F35D1FFF766FDD9
:1025E800001B0228F5D931E000221C4B1A60FFF7C6
:1025F8005DFD0446184B1B6813F0007F28D0FFF7D9
:1026080055FD001B0228F5D9032022E00120704760
:1026180001201EE003201CE003201AE0012018E03E
:10262800032016E0032014E0032012E0032010E04A
:1026380003200EE003200CE003200AE0002008E05D
:10264800012006E0032004E0002002E0032000E06F
:10265800002002B070BD00BF003802406000474251
:1026680038B5244B9B6803F00C03042B3FD0082B90
:1026780001D0214838BD1F4B5A6802F03F025B6801
:1026880013F4800F0AD01B4B5968C1F3881100233B
:102698001A48A1FB0001FDF7A1FD1FE0154B5B687F
:1026A800C3F38813DC000025690141EAD4616001A5
:1026B800041B61EB0505A90141EA9461A001001B17
:1026C80061EB0501C01841F100018B0243EA905308
:1026D8008402204619460023FDF780FD054B5B6800
:1026E800C3F3014301335B00B0FBF3F038BD03488B
:1026F80038BD00BF003802400024F40040787D0156
:10270800002800F0978070B50446514B1B6803F011
:102718000F038B4208D2CBB24D4A1370136803F0F3
:102728000F03994240F08880236813F0020F17D0F6
:1027380013F0040F04D0474A936843F4E0539360BE
:10274800236813F0080F04D0424A936843F46043A7
:1027580093604048836823F0F002A36813438360C2
:102768000D46236813F0010F2FD06268012A05D1A6
:10277800384B1B6813F4003F0ED15FE0931E012B0A
:1027880005D8344B1B6813F0007F05D158E0314B56
:102798001B6813F0020F55D02E498B6823F00303F2
:1027A80013438B60FFF782FC06462A4B9B6803F0B5
:1027B8000C036268B3EB820F07D0FFF777FC801B2E
:1027C80041F288339842F0D93EE0214B1B6803F070
:1027D8000F039D4207D2EAB21D4B1A701B6803F023
:1027E8000F039D4232D1236813F0040F06D0194914
:1027F8008B6823F4E052E36813438B60236813F07B
:10280800080F07D0134A936823F46043216943EA09
:10281800C1039360FFF724FF0E4B9B68C3F30313B8
:102828000D4AD35CD8400D4B18600020FFF7F2FB2F
:10283800002070BD01207047012070BD012070BDCF
:10284800012070BD012070BD032070BD012070BD46
:10285800003C0240003802405043000808000020B5
:10286800014B1868704700BF0800002008B5FFF743
:10287800F7FF044B9B68C3F38223034AD35CD84019
:1028880008BD00BF003802406043000808B5FFF7E4
:10289800E7FF044B9B68C3F34233034AD35CD84039
:1028A80008BD00BF0038024060430008074AD368EB
:1028B80023F4E0631B041B0C000200F4E0601843DF
:1028C80040F0BF6040F40030D060704700ED00E099
:1028D80030B4164BDB68C3F30223C3F10704042C9E
:1028E80028BF04241D1D062D01D9DD1E00E000258A
:1028F800012303FA04F4013C2140A940AB40013B09
:102908001A400A43002806DA00F00F001201D2B27A
:10291800074B1A5407E01201D2B200F1604000F5EB
:10292800614080F8002330BC704700BF00ED00E034
:1029380014ED00E00138B0F1807F0AD2064B5860F0
:10294800F021064A82F823100020986007221A60B6
:1029580070470120704700BF10E000E000ED00E084
:10296800042805D1054A136843F00403136070472F
:10297800024A136823F004031360704710E000E074
:10298800704700BF08B5FFF7FBFF08BD002800F03F
:10299800838038B5044690F83D3013F0FF0F04D11A
:1029A800002380F83C3000F01FFC242384F83D30DD
:1029B8002268136823F001031360FFF757FF374BB2
:1029C800A3FB00239B0C2268536021686568344A86
:1029D800954201D8013308E04FF4967202FB03F3E5
:1029E800304AA2FB03239B0901330B622168636809
:1029F8002B4A934208D85B00B0FBF3F0C0F30B03FB
:102A0800032B2BD8042029E0A5684DB903EB43021A
:102A1800B0FBF2F2C2F30B02B2FA82F252090AE0F8
:102A280003EB830202EB8202B0FBF2F2C2F30B0269
:102A3800B2FA82F2520982B935B903EB4303B0FB0B
:102A4800F3F040F4004009E003EB830303EB830356
:102A5800B0FBF3F040F4404000E00120C861226878
:102A6800E169236A0B43136022682169E3680B4319
:102A7800936022686169A3690B43D3602268136875
:102A880043F00103136000202064202384F83D30C4
:102A9800206384F83E0038BD0120704783DE1B4365
:102AA800A0860100D34D62102DE9F8430446016861
:102AB8000B6923F44052C36813430B610068C36871
:102AC80023F4164222F00C02A168236919436369B2
:102AD8001943E3690B431343C36021684B6923F42B
:102AE8004072A36913434B61E369B3F5004F40F0AB
:102AF800BB80276803F1804303F510439F4203D04E
:102B080003F580639F4257D1FFF7C0FE00EB8000BA
:102B180000EB800065686D00B0FBF5F5AB4EA6FBD9
:102B280005356D092D01FFF7B1FE00EB800000EBC4
:102B3800800063685B00B0FBF3F9FFF7A7FE00EBCA
:102B4800800000EB800063685B00B0FBF3F3A6FB3A
:102B580003235B094FF0640808FB1393DB0032334F
:102B6800A6FB03235B095B0003F4F8731D44FFF71E
:102B78008DFE00EB800000EB800063685B00B0FB1B
:102B8800F3F9FFF783FE00EB800000EB8000636839
:102B98005B00B0FBF3F3A6FB03235B0908FB139868
:102BA8004FEAC80808F13208A6FB0836C6F34216F1
:102BB8003544BD60BDE8F883FFF758FE00EB8000A0
:102BC80000EB800065686D00B0FBF5F57F4EA6FB55
:102BD80005356D092D01FFF749FE00EB800000EB7C
:102BE800800063685B00B0FBF3F9FFF73FFE00EB82
:102BF800800000EB800063685B00B0FBF3F3A6FB8A
:102C080003235B094FF0640808FB1393DB0032339E
:102C1800A6FB03235B095B0003F4F8731D44FFF76D
:102C280025FE00EB800000EB800063685B00B0FBD2
:102C3800F3F9FFF71BFE00EB800000EB80006368F0
:102C48005B00B0FBF3F3A6FB03235B0908FB1398B7
:102C58004FEAC80808F13208A6FB0836C6F3421640
:102C68003544BD60BDE8F8832668594B9E4203D0C1
:102C780003F580639E4254D1FFF708FE00EB800005
:102C880000EB80006568AD00B0FBF5F54F4FA7FB82
:102C980005356D092D01FFF7F9FD00EB800000EB0C
:102CA800800063689B00B0FBF3F8FFF7EFFD00EBD3
:102CB800800000EB800063689B00B0FBF3F3A7FB88
:102CC80003235B094FF0640909FB13831B013233AB
:102CD800A7FB03235B0903F0F0031D44FFF7D6FDB0
:102CE80000EB800000EB800063689B00B0FBF3F80A
:102CF800FFF7CCFD00EB800000EB800063689B00D1
:102D0800B0FBF3F3A7FB03235B0909FB13831B0148
:102D18003233A7FB0323C3F343131D44B560BDE857
:102D2800F883FFF7A3FD00EB800000EB80006568E7
:102D3800AD00B0FBF5F5254FA7FB05356D092D0155
:102D4800FFF794FD00EB800000EB800063689B00B8
:102D5800B0FBF3F8FFF78AFD00EB800000EB800082
:102D680063689B00B0FBF3F3A7FB03235B094FF0F9
:102D7800640909FB13831B013233A7FB03235B0997
:102D880003F0F0031D44FFF771FD00EB800000EB3A
:102D9800800063689B00B0FBF3F8FFF767FD00EB6A
:102DA800800000EB800063689B00B0FBF3F3A7FB97
:102DB80003235B0909FB13831B013233A7FB03239E
:102DC800C3F343131D44B560BDE8F8831F85EB5179
:102DD8000010014068B310B5044690F8393013F07C
:102DE800FF0F04D1002380F8383000F02DFB242396
:102DF80084F839302268D36823F40053D36020461E
:102E0800FFF752FE2268136923F490431361226886
:102E1800536923F02A0353612268D36843F40053AB
:102E2800D3600020E063202384F8393084F83A30F6
:102E380010BD0120704700BF484B5A6822F4403249
:102E48005A60596842680A435A600268536823F412
:102E58008073536002685368016943EA0123536031
:102E68000268536823F040735360026851688368AE
:102E78000B4353600268936823F40063936002680D
:102E88009168C3680B439360826A354B9A4214D0A9
:102E98000268936823F07063936002689168836A9C
:102EA8000B4393600268936823F040539360026871
:102EB8009168C36A0B43936009E00268936823F042
:102EC800706393600268936823F0405393600268CC
:102ED800936823F00203936002689368816943EA68
:102EE80041039360036A8BB10268536843F400633B
:102EF80053600268536823F46043536001684A686A
:102F0800436A013B42EA43334B6004E0026853687A
:102F180023F4006353600268D36A23F47003D36216
:102F28000168CA6AC369013B42EA0353CB6202687B
:102F3800936823F40073936002689368016B43EA13
:102F4800412393600268936823F480639360026866
:102F58009368416943EA81239360704700230140E5
:102F68000100000F28B310B50446036C23B943646D
:102F780080F83C3000F014F9236C13F0100F13D1D3
:102F8800236C23F4885323F0020343F002032364E1
:102F98002046FFF751FF00206064236C23F00303F1
:102FA80043F00103236400E00120002384F83C304F
:102FB80010BD0120704700BF30B482B000230193D8
:102FC80090F83C30012B00F0B180012380F83C30B0
:102FD8000B68092B17D90568EA689BB203EB430312
:102FE8001E3B072404FA03F322EA0303EB60046898
:102FF800E5688A680B8803EB43031E3B02FA03F378
:103008002B43E36013E005682A699BB203EB430393
:10301800072404FA03F322EA03032B6104682569F1
:103028008B680A8802EB420293402B4323614B686A
:10303800062B16D805686A6B03EB8303053B1F2430
:1030480004FA03F322EA03036B630468656B4B68B5
:1030580003EB8303053B0A8802FA03F32B436363FC
:103068002EE00C2B16D805682A6B03EB8303233B51
:103078001F2404FA03F322EA03032B630468256B75
:103088004B6803EB8303233B0A8802FA03F32B43C1
:10309800236315E00568EA6A03EB8303413B1F24B9
:1030A80004FA03F322EA0303EB620468E56A4B6857
:1030B80003EB8303413B0A8802FA03F32B43E362E1
:1030C80002681C4B9A4207D10B68122B04D11A4A8A
:1030D800536843F4800353600268164B9A4220D128
:1030E8000B68103B012B1CD8134A536843F40003A8
:1030F80053600B68102B14D1104B1B6802F14672F9
:1031080002F52E3202F28332A2FB03239B0C03EB5F
:1031180083035A000192019B1BB1019B013B019360
:10312800F9E7002380F83C30184600E0022002B09E
:1031380030BC7047002001400023014008000020F7
:1031480008B50320FFF7B2FB002211466FF00B0011
:10315800FFF7BEFB002211466FF00A00FFF7B8FB2D
:10316800002211466FF00900FFF7B2FB002211465A
:103178006FF00400FFF7ACFB002211466FF003006C
:10318800FFF7A6FB002211466FF00100FFF7A0FB36
:10319800002211464FF0FF30FFF79AFB08BD00BF31
:1031A80002680F4B9A421AD100B587B000210091EE
:1031B80003F58C335A6C42F480725A645B6C03F4E6
:1031C80080730093009B0F230193032302930391C1
:1031D80001A90448FEF770FF07B05DF804FB7047CB
:1031E80000200140000802400268124B9A4220D198
:1031F80000B587B04FF44063019312230293012373
:10320800039303230493042305930DEB03010A4856
:10321800FEF752FF00230093084B1A6C42F4800219
:103228001A641B6C03F480030093009B07B05DF8DD
:1032380004FB704700580040000402400038024078
:103248000368B3F1804F1CD100B587B00023009309
:103258000C4A116C41F001011164126C02F0010278
:103268000092009A0322019202220292039304938D
:103278000123059301A90448FEF71EFF07B05DF876
:1032880004FB7047003802400000024000B58BB0D4
:103298000368274A934218D10023019302F50D329F
:1032A800116C41F002011164126C02F002020192E9
:1032B800019AC02205920222069207930893099266
:1032C80005A91C48FEF7F8FE2EE01B4A93420CD1D4
:1032D80000230293194B1A6C42F004021A641B6C07
:1032E80003F004030293029B1EE0154A93420CD19B
:1032F80000230393114B1A6C42F008021A641B6CEA
:1033080003F008030393039B0EE00E4A93420BD18C
:1033180000230493094B5A6C42F002025A645B6C16
:1033280003F002030493049B0BB05DF804FB00BF99
:103338000004004000080240000800400038024035
:10334800000C00400004014082B00368104A934218
:103358000CD1002300930F4B1A6C42F080021A64C0
:103368001B6C03F080030093009B0EE00A4A934213
:103378000BD100230193074B1A6C42F480721A6434
:103388001B6C03F480730193019B02B0704700BF6C
:10339800001C0040003802400020004000B587B003
:1033A8000368224A93420CD101230193022302931A
:1033B800002203920492059301A91D48FEF77CFEA2
:1033C80031E01C4A93420DD14FF4707301930223EC
:1033D8000293002203920492059301A91448FEF770
:1033E8006BFE20E0144A93420CD10C230193022374
:1033F8000293002203920492059301A90F48FEF755
:103408005BFE10E00E4A93420DD14FF440730193D6
:10341800022302930023039304930323059301A932
:103428000848FEF749FE07B05DF804FB00040040B9
:103438000004024000080040000C00400000024068
:1034480000040140000802400268124B9A421FD152
:1034580000B587B0002300930F4B5A6C42F010025E
:103468005A645B6C03F010030093009B4FF4C06335
:103478000193022302930123039303230493072355
:10348800059301A90548FEF717FE07B05DF804FB90
:10349800704700BF001001400038024000000240A1
:1034A800704700BFFEE700BFFEE700BFFEE700BFB2
:1034B800FEE700BF704700BF704700BF704700BFFE
:1034C80008B5FEF7E7FDFFF75DFA08BD0F49D1F82B
:1034D800883043F47003C1F888300D4B1A6842F005
:1034E80001021A60002098601A6822F0847222F49F
:1034F80080321A60074A5A601A6822F480221A60D9
:10350800D8604FF000638B60704700BF00ED00E0AB
:103518000038024010300024DFF834D0002103E0E6
:103528000C4B5B58435004310B480C4B42189A42E1
:10353800F6D30B4A02E0002342F8043B094B9A42B7
:10354800F9D3FFF7C3FF00F041FDFEF76DFA7047AE
:1035580000000220684700080000002078000020D2
:1035680078000020FC020020FEE700F05DBD0000AE
:1035780010B5034B0360044600F03CFC204610BD28
:103588007043000810B50446FFF7F2FF2046FFF726
:10359800ECFF204610BD2DE9F14F0E461946834633
:1035A800174699460A9CDDF82CA0DDF830800D9D61
:1035B80000F032FB78B1002E2C602F7106DB34440A
:1035C800A0450CBF06240124AC711EE002361CD1B4
:1035D8000123AB7119E0444504D15146584600F027
:1035E8001BFB88B9DBF8080003680D95CDF830801F
:1035F800CDF82CA00A94DC693A464B463146A446DD
:1036080001B0BDE8F04F60476F71002001B0BDE820
:10361800F08F2DE9F041069E964280460F461446EB
:103628001D4603D1194600F0F7FA58B9D8F8080032
:10363800036806961E6A22462B463946B446BDE8FC
:10364800F04160470620BDE8F0812DE9F0410446CD
:103658000D4616461F4600F0E0FB48B9A06803680F
:103668009C6932463B462946A446BDE8F04160477E
:10367800BDE8F08170B50023A0EBC006C0EBC00226
:1036880010F8015B941905F07F02A24013432A0643
:10369800F4D40B6070BD30B500231A4610F8014B06
:1036A80004F07F0595402B43250602F10702F5D467
:1036B8001F2A06D8640642BF4FF0FF3404FA02F20C
:1036C80013430B6030BD5028F7B505460F46144626
:1036D8001E4605D1D01C20F0030050F8043B33E00F
:1036E80000F00F030C2B23D8DFE803F01A07121A97
:1036F8001E222222220C161A1E0001A92046FFF7BC
:10370800B9FF03E001A92046FFF7C5FF019B11E0BF
:10371800204630F8023B0DE0204630F9023B09E034
:10372800204650F8043B05E0204650F8083B01E0ED
:1037380000F044FC43B105F07002102A18BF3C4663
:1037480023442A0648BF1B68336003B0F0BD08B5A0
:103758000346FF2B08461CD003F07003202B0ED025
:1037680003D8B3B1102B12D113E0402B0BD0502B40
:103778000FD0302B0BD1BDE80840FDF723BEBDE8C4
:103788000840FDF71BBEBDE80840FDF707BE00F086
:1037980015FC002008BD70B50C46014620461546AC
:1037A8001E46FFF7D4FF33462A4601462046BDE8A9
:1037B8007040FFF788BF73B50E461446054610B132
:1037C800FDF7ECFDFFE720603178FF2906F10102E3
:1037D80005D0231D2846FFF7DEFF024600E06060A3
:1037E80013782375FF2B02F1010007D010232375EE
:1037F80001A9FFF73FFF019B034400E00023E360BA
:103808000378637501A90130FFF734FF019B034476
:10381800236102B070BD1FB503AB009300230A46B5
:103828001946FDF731F8039805B05DF804FB000070
:103838002DE9F04F91B00023049300F00303012B0E
:1038480007460C4615460ED002D3022B02D0EFE0F5
:10385800020717D529462046FDF78CFD08B1092037
:103868009FE108209DE100F0080202F0FF065AB926
:10387800D1F8208028460D21FFF7CDFF804520D1C3
:10388800062602E0012600E0022610AB07F0080732
:1038980043F82C4D009300233E430C22194628463A
:1038A800FDF718F8062E17D1D4F83080A76AD4F897
:1038B8002C90B8F1000F0CBF4FF0010A4FF0030A2B
:1038C80005E110AA334642F82C4D314600922846AD
:1038D8000C22FCF7FFFF02262846FDF765FD81460E
:1038E8000028B7D00AAA01462846FFF764FF2946F0
:1038F80080469DF83C00FFF72AFF0F210C902846D0
:10390800FFF789FF20F00100471E0E9B984580F0C5
:103918003F81424606AB9DF83D100020FFF73BFF74
:1039280007AB02469DF83D100020FFF734FF08ABB7
:1039380002469DF83D100020FFF72DFF09A9FFF76B
:1039480099FE069B0A9A13449F42804602D2DDF8EC
:103958003880DAE7079A13449F42D6D2089818B1FC
:103968000B9B00EB030800E08046099810B10E9FFE
:1039780001383844B8F1000F3FF46CAF002800F06C
:103988000C8116F00803029314D0472323704E23AA
:1039980063705523A3704323E370462323714F2399
:1039A80063715223A3710023E3714FF0000A6FF093
:1039B800030B1BE0E379012B0CBF54F8203C04F106
:1039C80058030493F1E704270D9A09AB07FB11226A
:1039D8000C99FFF778FE0999002900F0D5806CBB97
:1039E800089F002F59D0039B3B44184607A9FFF7AF
:1039F80052FE08A90390FFF74EFE0799002949D007
:103A080025DD9DF83C00FF2814D000F00703042BA7
:103A18000ED801A252F823F0CF390008393A00082D
:103A2800413A0008CF390008353A00080827CBE7A3
:103A380000F0C4FA0027C7E70227C5E704AB002255
:103A4800204600F023F9002840F09E80C8E70D9F2B
:103A58004A1CB4B1029BA3B9049B06930BFB0272E8
:103A6800171F57F8041F41B106AB002239442046FE
:103A780000F00CF90028F4D0012181F00101C9B24D
:103A880005E00BFB02F2B958B1FA81F149090029A6
:103A9800A6D079E04FF0010AA2E7BAF1000F3FF48F
:103AA800D9AE4FF0020AF30711D5BAF1020F3FF46D
:103AB800D1AE0D212846049EFFF7ADFE6662206256
:103AC800A762C4F82C90C4F83080062069E016F08C
:103AD800080608D0BAF1010F01D100F083F8002FD1
:103AE80024DA00F091F8BAF1010F02D1204600F073
:103AF800EEF9002F1ADA0AAA49462846FFF75BFEB4
:103B080029469DF83C00FFF722FE6FF003030D9A4B
:103B18000C9007FB0333134453F826200AB10136EF
:103B2800FAE70422A662E0622263636310AB2846C8
:103B380043F81C4D009300231A461946FCF7CAFEA9
:103B480010AB012243F8207D009300231946284634
:103B5800FCF7C0FE0F212846FFF75DFE10AB00F012
:103B6800010040EA080043F8240D009300230F22C7
:103B780019462846FCF7AEFEBAF1020F02D12046DC
:103B880000F0E2F807200CE0079F4FF0030A8AE7ED
:103B98004FF000084FF0010A01E04FF0020A002739
:103BA80081E711B0BDE8F08F10B5002814BF0446B6
:103BB8000124204600F030FA30B900F0ABF908B91A
:103BC80000F0FCF98047F4E710BD08B5804700F025
:103BD800F5F90000024B1868BFF35F8F704700BF0C
:103BE8000C00002008B5FFF7F5FFFFF7EEFF08B55A
:103BF8008047FFF7F7FF0000024B1868BFF35F8F9D
:103C0800704700BF1000002008B5FFF7F5FFFFF769
:103C1800EEFF704700207047814208B50ED040681B
:103C280003782A2B0CD049680B782A2B08BF01315E
:103C3800FDF7CEFBB0FA80F0400908BD012008BDB1
:103C4800002008BD1EB400F09CF81EBCFDF7CCF99E
:103C58000378472B17D143784E2B14D18378552BF3
:103C680011D1C378432B0ED10379432B0BD1437960
:103C78002B2B08D183792B2B05D1C07901288CBF38
:103C88000020012070470020704700002DE9F34113
:103C98001D460378472B0E460246C17944D1437826
:103CA8004E2B41D18378552B3ED1C378432B3BD142
:103CB8000379462B38D143794F2B35D18379522B51
:103CC80032D1002930D1012308460024019483B958
:103CD80088B901290ABF52F8203CA2F12003783B99
:103CE800012908BF52F8202C1C6818BF58320192CD
:103CF80002E0134C00E0134C236820469B68984769
:103D080020B1019B1B680193022700E0012733685B
:103D180001AAD3F81080214601233046C04758B184
:103D2800019B2B60384607E01046FFF791FF80F0B3
:103D38000100C0B20023C8E702B0BDE8F08100BFAF
:103D48005C4400088844000810B5044600F032F9C5
:103D580002462046A4F12001FFF77AFF50B154F83B
:103D6800043C0133012B44F8043C08D1936844F81F
:103D7800083C03E093680BB1FFF734FF9160012022
:103D880010BD10B500F016F9826801460AB9FFF7B0
:103D980029FF02F120042046FFF75AFF38B1D36902
:103DA800013BD36123B990698860936100E0886022
:103DB800204610BD7FB510230293036800241546E2
:103DC8009E6900946B468DF8044003941268B047CE
:103DD8009DF8043003F00603062B03BF009B2B60FD
:103DE8000120204604B070BD009890420CBF062008
:103DF8000120704710B5034B03600446FFF709FF25
:103E0800204610BDE843000810B50446FFF7F2FF4E
:103E18002046FFF7AAFB204610BD38B515461C46BC
:103E2800FFF7FAFE20B10823E3600623256023711B
:103E380038BD2DE9F041069E099C9846089B9E4294
:103E48000746154603D10799FFF7E6FE48B94146EC
:103E58003846FFF7E1FE28B1012326602571A371DA
:103E680000E065710020BDE8F0812DE9F0410546CC
:103E78000C4616461F46FFF7CFFE48B9032F07D852
:103E880023683246294620465B69BDE8F041184759
:103E9800BDE8F0810378472B17D143784E2B14D116
:103EA8008378552B11D1C378432B0ED10379432B3B
:103EB8000BD143792B2B08D183792B2B05D1C079D2
:103EC80001288CBF0020012070470020704710B5E2
:103ED800044648B100F043F82046FFF7DBFF18B16D
:103EE80054F8140CFFF771FEFFF77CFE38B5024654
:103EF800FFF7D0FF18B152F8184C002501E004462E
:103F08000125104600F02BF80DB1FFF77DFE204685
:103F1800FFF76DFE024B1868BFF35F8F704700BF55
:103F2800DC0200200378472B17D143784E2B14D19D
:103F38008378552B11D1C378432B0ED10379432BAA
:103F48000BD143792B2B08D183792B2B05D1C07941
:103F580001288CBF0020012070470020704738B529
:103F6800054600F027F8014602682846A5F1200416
:103F7800FFF7D8FF28B90AB1FFF734FE0C601446E2
:103F880015E055F80C3C002BB4BFC3F10103013315
:103F980045F80C3C4B68A24203F1FF334B602846BE
:103FA8001CBF45F8102C0C606C6AFCF765FC2046B9
:103FB80038BD000000487047E002002008B5062020
:103FC80000F02CF9012000F065F9000070B50E4BE7
:103FD8000E4CE41AA41000251E46A54204D056F83B
:103FE800253098470135F8E700F056F9084C094B99
:103FF800E41AA41000251E46A54204D056F8253020
:1040080098470135F8E770BD604700086047000829
:104018006447000860470008024B0146186800F032
:1040280065B800BF74000020024B0146186800F014
:104038000FB800BF7400002010B5431E0A44914217
:1040480004D011F8014B03F8014FF8E710BD000048
:1040580038B50546002946D051F8043C0C1F002B02
:10406800B8BFE41800F0F6F81F4A1368114613B9F0
:104078006360146032E0A3420ED92268A01883421C
:1040880004BF18685B68636004BF121822600C6084
:1040980024E0A24203D813465A68002AF9D11868C6
:1040A8001918A1420BD1216801445818824219609D
:1040B80014D1106852685A60014419600EE002D9A0
:1040C8000C232B600AE021686018824204BF106844
:1040D8005268626004BF091821605C602846BDE828
:1040E800384000F0B8B838BDF002002070B5CD1CDB
:1040F80025F0030508350C2D38BF0C25002D064684
:1041080001DBA94202D90C23336046E000F0A2F893
:10411800234B1C681A462146A1B10B685B1B0ED4C1
:104128000B2B03D90B60CC18CD501EE08C420DBF71
:1041380063684B686360136018BF0C4615E00C4653
:104148004968E9E7174C23681BB9304600F02CF89A
:1041580020602946304600F027F8431C18D0C41CBC
:1041680024F00304A0420DD12560304600F073F816
:1041780004F10B00231D20F00700C31A0ED05A4289
:10418800E25070BD211A304600F00EF80130EBD134
:104198000C233360304600F05EF8002070BD00BF8D
:1041A800F0020020EC02002038B5064C002305463A
:1041B8000846236000F060F8431C02D1236803B16D
:1041C8002B6038BDF80200201F2938B504460D467B
:1041D80004D9162303604FF0FF3038BD426C12B18A
:1041E80052F821304BB9204600F032F82A460146F1
:1041F8002046BDE8384000F019B8012B0CD0591CF6
:1042080003D116230360012038BD0024284642F854
:1042180025409847204638BD002038BD024B01464E
:104228001868FFF7D1BF00BF7400002038B5074CED
:104238000023054608461146236000F015F8431C84
:1042480002D1236803B12B6038BD00BFF8020020FB
:1042580000F002B870477047024B58221A604FF0BE
:10426800FF307047F8020020024B58221A604FF0C6
:10427800FF307047F8020020044A05491368002BF4
:1042880008BF0B461844106018467047F402002017
:1042980000030020FEE700BFF8B500BFF8BC08BC6B
:1042A8009E467047F8B500BFF8BC08BC9E467047EC
:1042B8003351454900000000E8430008B8420008AF
:1042C80000000000C0420008ED13000809140008AF
:1042D800F9130008FD13000801140008051400086C
:1042E8000000000034430008391400084D14000889
:1042F800611400086D14000829140008311400081E
:10430800385145495F54696D780000004C69627204
:104318006172792F54696D65722F5145492F514546
:10432800495F54696D782E6370700000704300080F
:1043380008430008C04200085372632F6D61696E1C
:104348002E637070000000000000000000000000F4
:104358000102030406070809000000000102030423
:104368000000000094430008793500088D350008E6
:104378001D3C00081D3C0008733E0008BD3D0008B8
:10438800533600089F3500081B36000870430008A4
:10439800A04300080C4400084E31305F5F63787812
:1043A800616269763132305F5F73695F636C617334
:1043B800735F747970655F696E666F450000000011
:1043C800E8430008D0430008537439747970655F76
:1043D800696E666F00000000000000000C440008D1
:1043E800FD3D0008113E00081D3C00081D3C00086A
:1043F800733E0008BD3D0008233E00083B3E000810
:10440800F13D00087043000818440008C84300083C
:104418004E31305F5F637878616269763131375F3A
:104428005F636C6173735F747970655F696E666FE3
:1044380045004E31305F5F6378786162697631316B
:10444800355F5F666F726365645F756E77696E640A
:1044580045000000E84300083A4400084E31305F48
:104468005F637878616269763131395F5F666F7250
:104478006569676E5F657863657074696F6E45001E
:08448800E84300086444000849
:1044900008B10181B0B000840000000008B10181C2
:1044A000B0B000840000000091F3FF7FB0AB0C00BF
:1044B000FFFF010C0C0400003A26620068040000B3
:1044C00008B10181B0B000840000000008B1018192
:1044D000B0B000840000000008B10181B0B00084D9
:1044E0000000000008B10181B0B0008400000000AD
:1044F00049F3FF7FB0B0A800FFFF010C02360000B7
:10450000420458004C16000008B10181B0B000848C
:104510000000000008B10181B0B00084000000007C
:1045200008B10181B0B000840000000008B1018131
:10453000B0B000840000000008B10181B0B0008478
:104540000000000008B10181B0B00084000000004C
:10455000C4BCFF7F010000003CC0FF7FB0A9028007
:10456000D4C0FF7FB0B0A88024C1FF7F010000004D
:1045700030C1FF7FB0B0AA8068C1FF7FAE71B2804A
:1045800034C2FF7F0100000030C2FF7FAB3F3880A4
:1045900088C2FF7F0100000094C2FF7FB0B0AA80F4
:1045A000D0C2FF7F0100000084C3FF7FAB0EB2804A
:1045B000ECC3FF7FB0AF0A80C0C6FF7F01000000E0
:1045C000C4C6FF7FAB3F04800CC9FF7F0100000021
:1045D000E8CAFF7F00840480FCCAFF7F010000005E
:1045E000F8CAFF7FB0AD048094CDFF7FB0A80380F0
:1045F000B4CDFF7F44FFFF7FB8CDFF7F48FFFF7F33
:10460000C4CDFF7F0100000030CEFF7FB0B0A88096
:1046100050CEFF7F7CFEFF7F54CEFF7F80FEFF7F6A
:1046200058CEFF7F84FEFF7FCCCEFF7FB0A90880ED
:1046300060CFFF7F010000005CCFFF7F84FEFF7F23
:1046400094CFFF7F00840480F4CFFF7F00840A8032
:104650007CD0FF7F0084108034D1FF7F00841280E3
:10466000D0D1FF7F68FEFF7F04D2FF7F6CFEFF7F0B
:104670002CD2FF7F70FEFF7F54D2FF7F00840A8020
:1046800008D3FF7F00841480A8D3FF7F64FEFF7FE0
:1046900004D4FF7F0100000074D6FF7FB0B0A88073
:1046A000DCD6FF7FAB08B18070D7FF7F0100000030
:1046B0006CD9FF7FB0B0A880B0D9FF7F4CFEFF7FE0
:1046C000DCD9FF7F01000000C4DBFF7FB0AA0180BE
:1046D00098DFFF7F0100000030E0FF7FB0B0AA80CC
:1046E00088E1FF7F01000000A4E2FF7F28FEFF7F3A
:1046F000A4E2FF7FA908B180B8E3FF7FAD08B180D5
:10470000DCE6FF7FB0B0A88038E7FF7F0100000043
:104710005CE8FF7FB0B0A880A8E8FF7F0100000040
:1047200028EAFF7FFCFDFF7F80EAFF7F0084068090
:1047300064EBFF7F00840A8018ECFF7F010000001B
:1047400064ECFF7F0084068060EDFF7F01000000C5
:1047500078EDFF7FD8FDFF7F7CEDFF7F010000003B
:04476000AD0100089F
:0447640089010008BF
:1047680010000000010000000024F400C53F00080C
:10477800ED3B000800000000000000000000000001
:104788000000000000000000000000000000000021
:104798000000000000000000000000000000000011
:1047A8000000000000000000000000000000000001
:1047B80000000000000000000000000000000000F1
:1047C80000000000000000000000000000000000E1
:0847D8000000000014000020A5
:040000050800352199
:00000001FF
