:020000040800F2
:10000000000002207D330008053300080933000892
:100010000D330008113300081533000800000000FC
:10002000000000000000000000000000193300087C
:100030001D330008000000002133000825330008AC
:10004000CD330008CD330008CD330008CD33000890
:10005000CD330008CD330008CD330008CD33000880
:10006000CD330008CD330008CD330008CD33000870
:10007000CD330008CD330008CD330008CD33000860
:10008000CD330008CD330008CD330008CD33000850
:10009000CD330008CD330008CD330008CD33000840
:1000A000CD330008CD330008CD330008CD33000830
:1000B000CD330008CD330008CD330008CD33000820
:1000C000CD330008CD330008CD330008CD33000810
:1000D000CD330008CD330008CD330008CD33000800
:1000E000CD330008CD330008CD330008CD330008F0
:1000F000CD330008CD330008CD330008CD330008E0
:10010000CD330008CD330008CD330008CD330008CF
:10011000CD330008CD330008CD330008CD330008BF
:10012000CD330008CD330008CD330008CD330008AF
:10013000CD3300080000000000000000CD330008AF
:10014000CD330008CD330008CD330008CD3300088F
:10015000CD330008CD330008CD330008CD3300087F
:10016000CD330008CD330008CD330008CD3300086F
:10017000CD330008CD33000800000000000000006F
:08018000CD330008CD33000867
:1001880010B5054C237833B9044B13B10448AFF3C9
:1001980000800123237010BD7000002000000000C3
:1001A800F0340008084B10B51BB108490848AFF3F4
:1001B80000800848036803B910BD074B002BFBD02B
:1001C800BDE81040184700BF000000007400002080
:1001D800F0340008700000200000000053B94AB94C
:1001E800002908BF00281CBF4FF0FF314FF0FF3037
:1001F80001F0ECB8ADF1080C6DE904CE00F006F89A
:10020800DDF804E0DDE9022304B070472DE9F0478A
:100218008C460E460446089D002B50D18A4217464C
:100228006CD9B2FA82FEBEF1000F0BD0CEF12004D9
:1002380020FA04F401FA0EF644EA060C02FA0EF764
:1002480000FA0EF44FEA1749220CBCFBF9F01FFA2A
:1002580087F809FB10C642EA064600FB08F3B342DA
:1002680009D9F61900F1FF3280F02281B34240F239
:100278001F8102383E44F61AA2B2B6FBF9F309FB15
:10028800136642EA064403FB08F8A04509D9E419B5
:1002980003F1FF3280F00A81A04540F20781023B5A
:1002A8003C44C8EB040443EA00400021002D62D01E
:1002B80024FA0EF400232C606B60BDE8F0878B42B3
:1002C80007D9002D55D0002185E841000846BDE832
:1002D800F087B3FA83F1002940F09080B34202D34B
:1002E800824200F2F880841A66EB03060120B446C5
:1002F800002D40D085E81010BDE8F08712B901271D
:10030800B7FBF2F7B7FA87FEBEF1000F35D1F31B42
:100318004FEA17481FFA87FC0121B3FBF8F0220CBB
:1003280008FB103642EA06460CFB00F3B34207D935
:10033800F61900F1FF3202D2B34200F2CE80104625
:10034800F61AA2B2B6FBF8F308FB136642EA0644B3
:100358000CFB03FCA44507D9E41903F1FF3202D2D0
:10036800A44500F2B5801346CCEB040443EA0040F0
:100378009CE729462846BDE8F087CEF1200106FA19
:100388000EF307FA0EF720FA01F94FEA1748CE40A4
:1003980049EA0309B6FBF8FA4FEA194408FB1A665A
:1003A8001FFA87FC44EA06430AFB0CF29A4200FA59
:1003B8000EF40AD9DB190AF1FF3180F087809A42DE
:1003C80040F28480AAF1020A3B449B1A1FFA89F979
:1003D800B3FBF8F108FB113349EA034301FB0CF6C0
:1003E8009E4207D9DB1901F1FF326BD29E4269D9CF
:1003F80002393B449B1B41EA0A418EE7C1F1200EBA
:1004080022FA0EF48B40234320FA0EF706FA01F481
:100418004FEA134C26FA0EF63C43B6FBFCF9270CC0
:100428000CFB19661FFA83F847EA064609FB08F72A
:10043800B74202FA01F200FA01FA08D9F61809F1EE
:10044800FF3041D2B7423FD9A9F102091E44F61B39
:10045800A0B2B6FBFCF40CFB146640EA064704FBAA
:1004680008F8B84507D9FF1804F1FF3028D2B84575
:1004780026D9023C1F4444EA0940C8EB0707A0FB01
:1004880002894F4544464E4614D329D065B3BAEB8A
:10049800040367EB060707FA0EFECB40CF404EEA8F
:1004A800030385E888000021BDE8F0871346F8E6D5
:1004B8001046E0E6B8EB020469EB03060138E5E70D
:1004C8000446D8E7114695E78146C0E78A467CE7A7
:1004D800023B3C4448E708460AE702383E442FE717
:1004E800C245E7D33E46D1E72946BDE8F08700BFBD
:1004F80003685A004CBF43F0004323F000431844FC
:10050800704700BF61B32DE9F84F01F1FF3A9046FB
:100518000646D146002707EB090404EBD47464109F
:10052800E50071190846FFF7E3FFA245834605F188
:100538000800304409D0FFF7DBFFC34500F1FF3066
:1005480005D8404509D2671CE5E7C34505D9A74248
:1005580002D004F1FF39DEE700210846BDE8F88F34
:1005680008467047012807D0022807D0044B002806
:100578000CBF184600207047024870470248704771
:10058800790C00087D0C0008810C000830B5244B5C
:1005980083B004468D1E7BB301A92846AFF30080C3
:1005A80020B301992A46FFF7ADFF0146F0B1FFF7E6
:1005B8009FFF4B68A064012B12D0002B01F10400AF
:1005C80020DBFFF795FF0023E06423650368002B19
:1005D8001CDBFFF78DFF00232061184603B030BDF8
:1005E800002323610523184603B030BD002323618F
:1005F8000923184603B030BD0A490B48091AC91027
:100608000191CFE70123E0642365DFE7C3F30360CB
:10061800FFF7A8FF0028206114BF00230923DCE7A7
:1006280000000000AC370008B43500080368DA079A
:1006380010B5044606D49B0700F1480009D500F020
:1006480059FC2368590709D51A070ED5DB0613D5B7
:1006580010BD00F047FC23685907F5D404F1D00019
:1006680000F050FC23681A07F0D404F5A87000F0D5
:1006780051FC2368DB06EBD404F5E870BDE81040B4
:1006880000F08CBC03680BB11844704718467047DB
:1006980009207047704700BF70B504460D4608E052
:1006A8002B6C63612A462369214601209847082854
:1006B80008D1296C2046FFF769FF06460028EFD0CD
:1006C80002F081FE0728FBD13046296CFFF7E2FFD4
:1006D800281D00F0FBFB00BF2DE9F0470C1D064666
:1006E80017460FCCADF5727D03AD0FC50FCC0FC506
:1006F8000FCC0FC594E80F0002ACD6F80C80D6F8E2
:10070800189085E80F0000233046216C2360FFF71E
:100718003DFF002F054614BF0A2709277DB1A36BAB
:1007280047F010018DE81002324663640120334619
:10073800C04778BB28460DF5727DBDE8F087236C6D
:1007480073614FF4F07221467AA802F069FE3369AA
:100758007AAA314638469847889B82468DE8100227
:1007680039466364324633460120C04790B94FF496
:10077800F0727AA9204602F053FEBAF1080F06D1AA
:10078800216C3046FFF702FF09270546C6E7BAF194
:10079800070F04D009200DF5727DBDE8F0872846C3
:1007A800216CFFF777FF03A800F090FB406C7047BF
:1007B800F0B5CB6B0B640E1D0F4604460FCEF9B097
:1007C80001AD0FC50FCE0FC50FCE0FC596E80F00B0
:1007D8004FF0FF3685E80F00009606E023696A4669
:1007E800214698470828054608D110992046FFF762
:1007F800CDFE0028F2D0092079B0F0BD6846FFF799
:1008080015FF062DF7D139462046FFF745FF00BFF3
:1008180030B4DD6BC160826119461D64002230BCB2
:100828005AE700BF70B5C66843690B6426B1012258
:10083800FFF752FF02F0C7FD03690A4604460D465A
:10084800014602209847072807D0082803D12946DF
:100858002046FFF721FF02F0B6FD3046296CFFF76E
:1008680019FF281D00F032FBC2681AB1CA6B0A646E
:10087800002231E79CE700BF704700BF836813B1CF
:10088800014601201847704700B5042907D8DFE85A
:1008980001F00309060909000BB90F2A05D902203E
:1008A8005DF804FB01205DF804FB00EB82021846AA
:1008B8005368019A13605DF804FB00BF10B584B05B
:1008C800002303AC0A4600941946FFF7DDFF03989E
:1008D80004B010BD00B5042907D8DFE801F003090A
:1008E800060909000BB90F2A05D902205DF804FB97
:1008F80001205DF804FB019900EB82020968516050
:1009080018465DF804FB00BF10B584B004AC0023A2
:1009180044F8042D0A4600941946FFF7DBFF04B09B
:1009280010BD00BFF0B5D36B1364151D07460E4606
:100938000FCDADF50F7D17AC0FC40FCD0FC40FCD84
:100948000FC495E80F004FF0FF3584E80F001695A7
:1009580010E016A8FFF7D8FF314616A8B84716AA20
:10096800694678B9049B08209847052804460AD0A8
:10097800092807D026996846FFF708FE6A460C2121
:100988000028E6D0092416A8FFF750FE20460DF5EA
:100998000F7DF0BD2DE9F04F0D46C96C8BB00C1DD5
:1009A800096807919146089400F0030B1E46002B36
:1009B80064D10902032307918DF825608DF824304E
:1009C8002B6DBBF1020F08BFAC6B13F0010343D1D1
:1009D80000F00800C2B2039201932768002F3DD0AF
:1009E800022E47D02788B4F802800434AB6C28F074
:1009F800010A0F2148469A44FFF760FF824537D81D
:100A080027F001039A4450452CBF002001204FEAEB
:100A1800480808F0020807F0010748EA0708B8F193
:100A2800010F41D038D3B8F1020F1DD1236823F04C
:100A380000420292BBF1000F79D130B1039900292D
:100A480000F08180002A00F0A880002B79DB029B4F
:100A5800013304EB8304C0E700230193022E40DD39
:100A6800FFF716FE002842D009200BB0BDE8F08F32
:100A78000020CCE7D4F804800834B7E7022B9FDCC9
:100A88000B0CDAB209048DF82530022304EB82043A
:100A980007918DF8243093E7BBF1000F02D00028AE
:100AA80040F0B080043498E7BBF1000F26D1B0B114
:100AB80094E80C00991C4FEAD272D5D005F1580180
:100AC8000133069100F09480201DFFF7DBFD06AB93
:100AD80001462846AFF30080002840F0B88008346B
:100AE8007BE707A9484600F0F3FA0028BCD1019B30
:100AF800002B5CD108200BB0BDE8F08F0D214846D3
:100B08002F6AFFF7DBFE8742E9D1AB6A9C42E6D148
:100B18002046FFF7EDFC0F2102464846FFF7F4FE9A
:100B280048462A460021FFF7EFFE07209DE70D21E2
:100B380048462F6AFFF7C2FE874248D02368002B39
:100B480085DA043483E7029B3BB305F15803271D7C
:100B5800CDF810B0DDF80C80DDF808A00596A346A6
:100B68001C4602E0B245B04616D038460694FFF758
:100B780089FD06AB014600222846AFF3008008F144
:100B8800010604370028EDD0029B059E43455C46CC
:100B9800DDF810B0D2D100E05C4648460D21FFF7E1
:100BA8008DFE069B2862AC626B6206205DE70F2112
:100BB8004846FFF783FE0E2102464846FFF7A4FE8B
:100BC80048462A4A0F21FFF79FFE07204DE7AB6AE8
:100BD8009C42B3D104220027A3180299A962EF62AC
:100BE8002A636B632368BB421FDB012301932EE753
:100BF80048460D21FFF762FE2862069B6B62AC62D5
:100C0800062032E72046FFF773FC04340646AC633F
:100C18002846AFF3008000283FF426AF4846324606
:100C28000F21FFF771FE07201FE70846013004EB8C
:100C38008000FFF75DFC0F2102464846FFF764FE7F
:100C480048462A463946FFF75FFE07200DE7074664
:100C58000D214846FFF732FE022F2862CDD12B46E0
:100C6800069A43F82C2F6B62C9E700BF000000000A
:100C780000238FE601238DE602238BE6F0B50446B8
:100C8800C5B004290DD8DFE801F057030C310F0077
:100C9800012B4FEA124695B266D17219102A40F21A
:100CA8009F80022045B0F0BD002BFAD1102AF8D859
:100CB8002368D80600F1C98022AE3046019200F0C0
:100CC80077F9A06B019A0023012505FA03F1114277
:100CD80003D0016846F8231004300133042BF4D103
:100CE800A063304600F05AF90020DBE7032BD8D187
:100CF800150C97B2EB19102BD3D823681E0700F1F7
:100D0800B88022AE30467F0000F026F906EBC50217
:100D18007B1EA56B57B1043A294651F8040B42F8DB
:100D2800040F013B581CF8D105EB87053046A56335
:100D380000F0F0F80020B5E7002BB2D1A56B97B210
:100D4800201D012606FA03F1394203F1010302D0FE
:100D5800296801600435102B00F10400F2D112F467
:100D680000503BD1A5639DE7052B9AD17719202F19
:100D780097D80F2E65D92F46002D48D12A4600272F
:100D8800002AA06B71DD00EBC202014644A800EB0B
:100D9800C6008C3851F8045B40F8045F9142F9D1E1
:100DA800084697B1102E324644A938BF102201EBED
:100DB800C202A2F5C4727900043A00EB810150F82E
:100DC800045B42F8045F8142F9D1012B47D00F2E12
:100DD800A16332D917B102A800F094F8002061E7A6
:100DE8000F2E3FF65EAF00272268D1070DD522F0FF
:100DF8000101052B21600193204652D022F0030205
:100E080040F8482B00F072F8019B002F51D022685F
:100E1800510736D4012B3ED00F2E06D822A80193B5
:100E280000F06CF8019B002FA8D002A8019300F0F5
:100E38006DF8019BC6F11002A2E722A800F05AF84B
:100E4800C8E7102FCFD9103FCEE723F01003236057
:100E580004F5E870019200F0ABF8019A2CE7043130
:100E6800A16322A800F03EF8B8E7002F9AD1014606
:100E7800ABE723F00803236004F5A87000F06CF8D2
:100E88003FE7204622F0040240F8D02B019300F0FF
:100E98003DF8019BBEE722A8019300F027F8019BCB
:100EA800C8E741F0020140F8481B00F027F8019B11
:100EB800ABE7012B03D00F2E3FF660AFAEE722A8B9
:100EC800019300F013F8019B58E700BF00F13401CB
:100ED80091E838009C46A6464CF8045D90E8FF0F60
:100EE800E54600BD90EC210B704700BF80EC210B5C
:100EF800704700BF90EC200B704700BF80EC200BC0
:100F0800704700BFD0EC200B704700BFC0EC200B2F
:100F1800704700BFF0EC0201F0EC0211F0EC022186
:100F2800F0EC0231F0EC0241F0EC0251F0EC02611D
:100F3800F0EC0271F0EC0281F0EC0291F0EC02A10D
:100F4800F0EC02B1F0EC02C1F0EC02D1F0EC02E1FD
:100F5800F0EC02F1704700BFE0EC0201E0EC021196
:100F6800E0EC0221E0EC0231E0EC0241E0EC02515D
:100F7800E0EC0261E0EC0271E0EC0281E0EC02914D
:100F8800E0EC02A1E0EC02B1E0EC02C1E0EC02D13D
:100F9800E0EC02E1E0EC02F1704700BFB0FC018137
:100FA800B0FC0191B0FC01A1B0FC01B1704700BFD9
:100FB800A0FC0181A0FC0191A0FC01A1A0FC01B151
:100FC800704700BFEC4600B52DE900502DE9FF1F22
:100FD8004FF000032DE90C0001A9FFF7E9FBDDF84C
:100FE80040E012B0704700BFEC4600B52DE9005054
:100FF8002DE9FF1F4FF000032DE90C0001A9FFF7B1
:1010080011FCDDF840E012B0704700BFEC4600B5B7
:101018002DE900502DE9FF1F4FF000032DE90C00CA
:1010280001A9FFF721FCDDF840E012B0704700BFCE
:10103800EC4600B52DE900502DE9FF1F4FF00003E5
:101048002DE90C0001ABFFF7E3FBDDF840E012B03F
:10105800704700BFEC4600B52DE900502DE9FF1F91
:101068004FF000032DE90C0001AAFFF75BFCDDF847
:1010780040E012B0704700BF037A1BB9437A43B906
:10108800B02070475A1E036802721A020260180ED6
:1010980070474268013B10B4437213680321141D62
:1010A80001721A02446002605DF8044B180E704722
:1010B80000B585B003AA0023009219460C22FFF759
:1010C800E3FB039805B05DF804FB00BFF0E700BF41
:1010D8002DE9F043064685B00D464FF00008284636
:1010E800FFF7CAFFB028044600F0B48020F07F0361
:1010F80013F0FF0320D000F0F003802B7AD0902B60
:1011080035D0A02B48D0B02B5CD0C02B00F0898004
:1011180000F0F803D02B0BD100F00702013242F4A3
:101128000022052301213046FFF7A8FD0028D6D06C
:10113800092005B0BDE8F0830DF10C0919468700B8
:10114800CDF800900D223046FFF79EFBFFB2039BBF
:10115800CDF80090043760064CBFDF1BFF18002352
:1011680019460D2230460397FFF7B4FBB7E700F0A6
:101178000D030D2BDCD003AF002300F00F0219463E
:1011880000973046FFF780FB0023009719460D2291
:101198003046FFF79FFBA2E7C2434FF47F6302F09C
:1011A800070243FA02F2010702EA03024FF00003C2
:1011B80048BF42F4804219463046FFF75FFD0028D9
:1011C800B6D18CE7B1284AD0B22853D0B32800F062
:1011D800818000F0FC03B42BAAD000F00702013292
:1011E800012342F4002219463046FFF747FD002844
:1011F8009ED174E72846FFF73FFF24022043B0F54D
:10120800004F95D004010023A2B219463046FFF7DB
:1012180035FD00288CD114F4004F18BF4FF0010899
:101228005DE7C62862D0C7286CD000F0F803C02B51
:101238007BD0C82800F09180C9287FF479AF284670
:10124800FFF71AFF020300F00F0002F470220130CA
:10125800024366E7B8F1000F6ED0002069E7284620
:10126800FFF70AFF024600283FF462AF10F0F003D0
:10127800B9D05DE700230DF10C090D221946CDF810
:1012880000903046FFF700FB2846FFF7F5FE020600
:101298004FF002040CD5039B00F07F00A0400344EC
:1012A80028460393FFF7E8FE030604F10704F2D487
:1012B800039BCDF8009000F07F0000FA04F203F5DC
:1012C80001740023144419460D2230460394FFF795
:1012D80001FB04E72846FFF7CFFE010300F00F00EB
:1012E80001F47021421C01230A437CE72846FFF7DA
:1012F800C3FE010300F00F0001F47021421C032318
:101308000A4370E72846FFF7B7FE024600283FF475
:101318000FAF10F0F0037FF40BAF04213046FFF756
:10132800ADFC00287FF404AFD9E600F00F020132CB
:10133800032342F4202256E703AC43460E224146DB
:1013480000943046FFF7A0FA0094304643460F2237
:101358004146FFF7BFFA4046EBE62846FFF78CFE0A
:1013680000F0F00200F00F031032013343EA0232BA
:10137800D7E600BF10B5C36C84B05A6803208DF857
:101388000C00DC798DF80D4012020833084601A9DB
:1013980001920293FFF79CFE04B010BD08B5FFF759
:1013A80095FE806C08BD00BF08B5FFF78FFEC36CC3
:1013B800D87903EB8000083008BD00BF08B502F0FB
:1013C80002F800BF08B5FFF7F9FF00BF704700BF7C
:1013D80030B589B000240094214B1A6B42F0040206
:1013E8001A631A6B02F004020092009A01941A6BB5
:1013F80042F001021A631A6B02F001020192019A8B
:1014080002941A6B42F002021A631B6B03F0020388
:101418000293029B134D22464EF23E01284600F0ED
:1014280059FE4EF23E030393012304930594069458
:1014380003A9284600F06EFD4FF4805303930494EB
:10144800059403A9284600F065FD4FF40063039353
:101458000494059403A9044800F05CFD09B030BD6C
:10146800003802400004024000000240FEE700BFCE
:1014780008B50C480C4B03600C4B43600023836099
:10148800C3604FF48042026143618361C3610362B8
:1014980001F0AAF920B14FF484710548FFF7E6FF7F
:1014A80008BD00BF8C00002000580040A086010045
:1014B8000835000800B585B01448154B03600023B3
:1014C80043608360036183610362C362114A82627D
:1014D800C3600122C2610363426101F071FC18B16B
:1014E800EA210D48FFF7C2FF0A2300930123019365
:1014F800002302936946054801F08CFC18B1F421D9
:101508000548FFF7B3FF05B05DF804FBE0000020D5
:10151800002001400100000F0835000800B58DB01B
:1015280015484FF080430360002343608360C36025
:10153800036101220392049305920693079308938B
:1015480009920A930B9303A900F0A4FB20B14FF46E
:1015580092710A48FFF78AFF00230193029301A9B9
:10156800054800F023FA20B140F22B110348FFF799
:101578007DFF0DB05DF804FBA001002008350008D0
:1015880000B58BB01F48204B036000234360836085
:10159800C360036100F062FB20B14FF4D3711B48B4
:1015A800FFF764FF00230893099308A9154800F082
:1015B800FDF920B140F2AD111448FFF757FF602341
:1015C80001930023029303930593082201A90D4870
:1015D80000F0E0FB20B14FF4DB710C48FFF746FF49
:1015E8000C2201A9074800F0D5FB20B140F2BB113D
:1015F8000648FFF73BFF034801F0FEFD0BB05DF81E
:1016080004FB00BF54020020000C0040083500080D
:1016180000B591B02B482C4B0360002343608360D6
:10162800C3600361436100F019FB20B14FF4E97115
:101638002648FFF71BFF00230E930F930EA921489E
:1016480000F0B4F920B140F2D9112048FFF70EFF9D
:10165800602307930023089309930A930B930C9331
:101668000D93082207A9174800F094FB20B140F217
:10167800E5111648FFF7FAFE0C2207A9114800F0F9
:1016880089FB20B14FF4F5711048FFF7EFFE0023F6
:10169800009301930293039304934FF4005205922D
:1016A80006936946074800F0ABF920B14FF4FB7187
:1016B8000648FFF7DBFE034801F09EFD11B05DF818
:1016C80004FB00BF90020020000401400835000818
:1016D80000B593B02448254B036000234360836022
:1016E800C360036100F0BAFA20B140F23F1120480C
:1016F800FFF7BCFE0122099200230A930B920C9378
:101708000D930E930F921093119309A9164800F0A8
:10171800C1FA20B140F24D111548FFF7A7FE00238A
:101728000793089307A9104800F040F920B14FF437
:10173800AA710F48FFF79AFE6023009300230193D4
:101748000293049308226946074800F023FB20B15E
:1017580040F25D110648FFF789FE034801F04CFD91
:1017680013B05DF804FB00BFDC010020000400405A
:101778000835000808B50B480B4B03604FF4E133FC
:10178800436000238360C36003610C22426183616C
:10179800C36101F04DFA20B140F22B210348FFF755
:1017A80065FE08BDCC020020001001400835000885
:1017B80008B50848084B0360002343608360C36092
:1017C800036100F02FFA20B14FF402710348FFF7CC
:1017D8004DFE08BD28010020001C00400835000807
:1017E80008B50848084B0360002343608360C36062
:1017F800036100F017FA20B14FF406710348FFF7B0
:1018080035FE08BD640100200020004008350008AE
:1018180000B58BB02A482B4B0360002343608360DC
:10182800C360036100F01AFA20B14FF4B971264879
:10183800FFF71CFE00230893099308A9204800F02D
:10184800B5F820B140F279111F48FFF70FFE602369
:101858000193002202920392059201A9184800F010
:1018680099FA20B14FF4C1711748FFF7FFFD042220
:101878000DEB0201124800F08DFA20B140F28711F9
:101888001148FFF7F3FD082201A90D4800F082FA7C
:1018980020B14FF4C6710C48FFF7E8FD0C2201A9EE
:1018A800074800F077FA20B140F291110648FFF797
:1018B800DDFD034801F0A0FC0BB05DF804FB00BFA0
:1018C80018020020000800400835000800B595B04F
:1018D80000230193234A116C41F080511164126C6A
:1018E80002F080520192019A02931F4A116841F452
:1018F80080411160126802F480420292029A022228
:10190800089201220B9210220C920E9308A800F064
:10191800E7FB18B1B7211548FFF7A8FD0F2303937C
:101928000021049105910691079103A800F016FE85
:1019380018B1C5210D48FFF799FD00F0BFFE0C4B0B
:10194800A3FB0030800900F023FF042000F036FFDD
:10195800002211464FF0FF3000F0E8FE15B05DF8A8
:1019680004FB00BF00380240007000400835000842
:10197800D34D621008B500F0A1FAFFF7A7FFFFF7F3
:1019880027FDFFF775FDFFF795FDFFF7C7FDFFF78B
:10199800F7FDFFF73DFEFFF79BFEFFF7EBFEFFF7B6
:1019A80007FFFFF71DFFFFF733FFFEE790F838301A
:1019B800012B21D030B4012280F83820022380F88E
:1019C80039300468636823F07003636004686568ED
:1019D8000B682B4363600468A36823F08003A3604B
:1019E8000468A5684B682B43A36080F8392000235E
:1019F80080F83830184601E00220704730BC704744
:101A080090F83830012B25D0012380F83830CB6886
:101A180023F440728B68134323F480624B681343AA
:101A280023F400620B68134323F480520B691343B9
:101A380023F400524B69134323F480438A69134308
:101A480023F40043134302685364002380F83830BA
:101A5800184670470220704770B4036A23F00103E8
:101A68000362036A4668826922F073020C6842EADC
:101A7800040523F002028B6813430C4CA04202D0E9
:101A88000B4A90420BD123F00803CA68134323F092
:101A9800040326F440764A6932438E691643466049
:101AA80085614A684263036270BC70470000014068
:101AB8000004014030B4036A23F480730362036AAC
:101AC8004568C26922F073020C68224323F400734C
:101AD8008C6843EA04230E4CA04203D004F58064CA
:101AE800A0420ED123F40063CC6843EA042323F414
:101AF800806325F440554C6945EA04158C6945EA2C
:101B080004154560C2614A68C263036230BC70470D
:101B18000000014030B4036A23F480530362036A6F
:101B28004468C26922F4E6420D6842EA052223F4B9
:101B380000538D6843EA0533094DA84203D005F5E3
:101B48008065A84204D124F480444D6944EA851490
:101B58004460C2614A680264036230BC704700BFD7
:101B68000000014003682E4A904212D0B0F1804F25
:101B78000FD0A2F57C4290420BD002F580629042D1
:101B880007D002F58062904203D002F57842904275
:101B980003D123F070034A681343214A90422AD0A4
:101BA800B0F1804F27D0A2F57C42904223D002F5B5
:101BB800806290421FD002F5806290421BD002F5ED
:101BC8007842904217D002F57052904213D002F535
:101BD800806290420FD002F5806290420BD0A2F54D
:101BE8009832904207D002F58062904203D002F505
:101BF8008062904203D123F44073CA6813430360A0
:101C08008B68C3620B688362054B984203D003F567
:101C18008063984201D10B690363012343617047D4
:101C280000000140C0B110B5044690F8393013F0F7
:101C3800FF0F04D1002380F8383001F0B3FA0223F3
:101C480084F83930214651F8040BFFF78BFF012344
:101C580084F83930002010BD01207047C0B110B59C
:101C6800044690F8393013F0FF0F04D1002380F8B0
:101C7800383001F039FA022384F83930214651F816
:101C8800040BFFF76FFF012384F83930002010BDE3
:101C980001207047002848D0F8B505460C4690F852
:101CA800393013F0FF0F04D1002380F8383001F0E9
:101CB800F5F9022385F839302A68936823F0070379
:101CC8009360294651F8040BFFF74CFF2968886890
:101CD8008B690F6A2268104323F4407323F00303CF
:101CE800A268A66942EA0622134323F47C4323F040
:101CF800FC03E668E26946EA02263343226A1203D5
:101D0800266942EA0612134327F0AA076668626941
:101D180046EA02123A43886029688B612B681A6286
:101D2800012385F839300020F8BD0120704700BF35
:101D380030B4036A23F010030362036A44688269BB
:101D480022F4E6420D6842EA052223F020038D685A
:101D580043EA05130E4DA84203D005F58065A84255
:101D68000ED123F08003CD6843EA051323F0400326
:101D780024F440644D6944EA85048D6944EA850485
:101D8800446082614A688263036230BC704700BF66
:101D98000000014038B590F83830012B66D00D4668
:101DA8000446012380F83830022380F839300C2AA1
:101DB80055D8DFE802F0075454541A5454542E549A
:101DC800545441000068FFF747FE2268936943F0C6
:101DD800080393612268936923F0040393612268DE
:101DE80091692B690B43936139E00068FFF7A0FF05
:101DF8002268936943F4006393612268936923F42A
:101E08008063936122689369296943EA0123936196
:101E180025E00068FFF74EFE2268D36943F0080307
:101E2800D3612268D36923F00403D3612268D1699E
:101E38002B690B43D36112E00068FFF76BFE226841
:101E4800D36943F40063D3612268D36923F48063C0
:101E5800D3612268D369296943EA0123D361012345
:101E680084F83930002084F8380038BD022038BDA5
:101E780010B504460E4B18784FF47A73B3FBF0F3A1
:101E88000C4A1068B0FBF3F000F082FC58B90F2C34
:101E98000BD8002221464FF0FF3000F047FC064BDC
:101EA8001C60002010BD012010BD012010BD00BF26
:101EB80004000020080000200000002008B50B4B9B
:101EC8001A6842F400721A601A6842F480621A6052
:101ED8001A6842F480721A60032000F015FC002092
:101EE800FFF7C6FF01F05AF8002008BD003C024089
:101EF800034A1368034909780B441360704700BF0D
:101F08000C03002004000020014B1868704700BF34
:101F18000C030020F0B583B000240F2C00F2CF8012
:101F28000123A3400A6803EA0205AB4240F0C580DA
:101F38004A68022A01D0122A10D1E608083650F859
:101F480026C004F0070297000F22BA402CEA020EBE
:101F58000A69BA404EEA020240F826200268670081
:101F68000326BE40F64302EA060E4A6802F0030260
:101F7800BA404EEA020202604A6802F1FF3EBEF130
:101F8800010F03D9112A01D0122A10D1826806EA5A
:101F9800020ECA68BA404EEA02028260426822EA29
:101FA80003034A68C2F30012A2401A434260C3689E
:101FB8001E408B68BB403343C3604B6813F0805F9F
:101FC8007BD0002301933F4B5A6C42F480425A6401
:101FD8005B6C03F480430193019BA608B21C3A4B47
:101FE80053F8227004F003039B000F229A4027EA5B
:101FF8000207364A90421DD002F5806290421BD0FB
:1020080002F58062904219D002F58062904217D0A2
:1020180002F58062904215D002F58062904213D09A
:1020280002F58062904211D002F5806290420FD191
:1020380007220EE000220CE001220AE0022208E05A
:10204800032206E0042204E0052202E0062200E062
:10205800082202FA03F33B4302361B4A42F82630B1
:102068001B4B1A68EB4302EA03064F6817F4803FDC
:1020780001D045EA0206164A1660526803EA0206CB
:102088004F6817F4003F01D045EA0206104A56602F
:10209800926803EA02064F6817F4801F01D045EAE8
:1020A80002060B4A9660D26813404E6816F4001F69
:1020B80001D045EA0203064AD36001342DE703B094
:1020C800F0BD00BF00380240003801400000024067
:1020D800003C01400AB18161704709048161704781
:1020E800002800F0C18170B582B00446036813F07F
:1020F800010F63D0984B9B6803F00C03042B0CD0A2
:10210800954B9B6803F00C03082B08D1924B5B6836
:1021180013F4800F05D1002304E0012302E000231B
:1021280000E0012363B18C4A126812F4003F03D027
:10213800626812B1002300E00023002B3ED095E135
:102148006368B3F5803F05D1834A136843F480334D
:10215800136015E0B3F5A02F09D17F4B1A6842F43C
:1021680080221A601A6842F480321A6008E07A4BBA
:102178001A6822F480321A601A6822F480221A60DF
:1021880063686BB1FFF7C0FE0546734B1B6813F419
:10219800003F13D1FFF7B8FE401B6428F5D967E16B
:1021A800FFF7B2FE05466C4B1B6813F4003F05D0E1
:1021B800FFF7AAFE401B6428F5D95BE1236813F0FA
:1021C800020F5BD0644B9B6813F00C0F0CD0624B72
:1021D8009B6803F00C03082B08D15F4B5B6813F472
:1021E800800F05D0002304E0012302E0002300E073
:1021F8000123B3B1584A126812F0020F04D0E26802
:10220800012A02D1002300E00023002B40F0348192
:10221800514A136823F0F803216943EAC1031360A4
:102228002CE0E368CBB101224C4B1A60FFF76CFE3F
:102238000546494B1B6813F0020F05D1FFF764FEF2
:10224800401B0228F5D919E1434A136823F0F80323
:10225800216943EAC103136010E000223F4B1A6072
:10226800FFF752FE05463C4B1B6813F0020F05D0E2
:10227800FFF74AFE401B0228F5D901E1236813F055
:10228800080F23D0636983B10122354B1A60FFF729
:102298003BFE0546304B5B6F13F0020F16D1FFF77C
:1022A80033FE401B0228F5D9ECE000222C4B1A60C3
:1022B800FFF72AFE0546284B5B6F13F0020F05D087
:1022C800FFF722FE401B0228F5D9DDE0236813F052
:1022D800040F7AD0204B1B6C13F0805F0DD10023C4
:1022E80001931D4B1A6C42F080521A641B6C03F068
:1022F80080530193019B012500E00025194B1B68C1
:1023080013F4807F12D1174A136843F48073136063
:10231800FFF7FAFD0646134B1B6813F4807F05D1BF
:10232800FFF7F2FD801B0228F5D9AFE0A368012B67
:1023380005D1094A136F43F0010313671DE0052B0C
:1023480012D1054B1A6F42F004021A671A6F42F055
:1023580001021A6711E000BF00380240000047423E
:10236800800E474200700040524B1A6F22F0010263
:102378001A671A6F22F004021A67A3687BB1FFF785
:10238800C3FD06464B4B1B6F13F0020F17D1FFF727
:10239800BBFD801B41F288339842F3D978E0FFF700
:1023A800B3FD0646434B1B6F13F0020F07D0FFF730
:1023B800ABFD801B41F288339842F3D96AE025B11E
:1023C8003C4A136C23F080531364A369002B63D039
:1023D800384A926802F00C02082A5FD0022B31D1E9
:1023E8000022354B1A60FFF78FFD0546314B1B68FD
:1023F80013F0007F05D0FFF787FD401B0228F5D9B1
:102408004EE0E269236A1343626A43EA8213A26ACE
:102418005208013A43EA0243E26A43EA0263254A60
:1024280053600122244B1A60FFF76EFD0446214BCE
:102438001B6813F0007F35D1FFF766FD001B0228EB
:10244800F5D931E000221C4B1A60FFF75DFD044608
:10245800184B1B6813F0007F28D0FFF755FD001BB1
:102468000228F5D9032022E00120704701201EE050
:1024780003201CE003201AE0012018E0032016E0E6
:10248800032014E0032012E0032010E003200EE0F4
:1024980003200CE003200AE0002008E0012006E009
:1024A800032004E0002002E0032000E0002002B046
:1024B80070BD00BF003802406000474238B5244B69
:1024C8009B6803F00C03042B3FD0082B01D0214854
:1024D80038BD1F4B5A6802F03F025B6813F4800F47
:1024E8000AD01B4B5968C1F3881100231A48A1FB75
:1024F8000001FDF773FE1FE0154B5B68C3F38813FB
:10250800DC000025690141EAD4616001041B61EB2C
:102518000505A90141EA9461A001001B61EB0501D1
:10252800C01841F100018B0243EA9053840220460F
:1025380019460023FDF752FE054B5B68C3F30143C0
:1025480001335B00B0FBF3F038BD034838BD00BF72
:10255800003802400024F40040787D01002800F093
:10256800978070B50446514B1B6803F00F038B42EC
:1025780008D2CBB24D4A1370136803F00F03994287
:1025880040F08880236813F0020F17D013F0040F6F
:1025980004D0474A936843F4E0539360236813F0E8
:1025A800080F04D0424A936843F46043936040485C
:1025B800836823F0F002A368134383600D46236801
:1025C80013F0010F2FD06268012A05D1384B1B6820
:1025D80013F4003F0ED15FE0931E012B05D8344B56
:1025E8001B6813F0007F05D158E0314B1B6813F0CE
:1025F800020F55D02E498B6823F0030313438B60D9
:10260800FFF782FC06462A4B9B6803F00C036268BE
:10261800B3EB820F07D0FFF777FC801B41F28833BA
:102628009842F0D93EE0214B1B6803F00F039D420E
:1026380007D2EAB21D4B1A701B6803F00F039D42C4
:1026480032D1236813F0040F06D019498B6823F49C
:10265800E052E36813438B60236813F0080F07D038
:10266800134A936823F46043216943EAC1039360E2
:10267800FFF724FF0E4B9B68C3F303130D4AD35C8B
:10268800D8400D4B18600020FFF7F2FB002070BD0A
:1026980001207047012070BD012070BD012070BD70
:1026A800012070BD032070BD012070BD003C0240B8
:1026B800003802401835000808000020014B18684F
:1026C800704700BF0800002008B5FFF7F7FF044B6C
:1026D8009B68C3F38223034AD35CD84008BD00BF7C
:1026E800003802402835000808B5FFF7E7FF044B1B
:1026F8009B68C3F34233034AD35CD84008BD00BF8C
:102708000038024028350008074AD36823F4E063FC
:102718001B041B0C000200F4E060184340F0BF608B
:1027280040F40030D060704700ED00E030B4164B44
:10273800DB68C3F30223C3F10704042C28BF042475
:102748001D1D062D01D9DD1E00E00025012303FA19
:1027580004F4013C2140A940AB40013B1A400A4324
:10276800002806DA00F00F001201D2B2074B1A5403
:1027780007E01201D2B200F1604000F5614080F834
:10278800002330BC704700BF00ED00E014ED00E00E
:102798000138B0F1807F0AD2064B5860F021064A12
:1027A80082F823100020986007221A6070470120E1
:1027B800704700BF10E000E000ED00E0042805D1FC
:1027C800054A136843F0040313607047024A13680C
:1027D80023F004031360704710E000E0704700BF67
:1027E80008B5FFF7FBFF08BD002800F0838038B567
:1027F800044690F83D3013F0FF0F04D1002380F811
:102808003C3000F01FFC242384F83D302268136814
:1028180023F001031360FFF757FF374BA3FB002397
:102828009B0C2268536021686568344A954201D838
:10283800013308E04FF4967202FB03F3304AA2FB1F
:1028480003239B0901330B62216863682B4A934277
:1028580008D85B00B0FBF3F0C0F30B03032B2BD8B5
:10286800042029E0A5684DB903EB4302B0FBF2F25E
:10287800C2F30B02B2FA82F252090AE003EB8302B6
:1028880002EB8202B0FBF2F2C2F30B02B2FA82F25E
:10289800520982B935B903EB4303B0FBF3F040F4B6
:1028A800004009E003EB830303EB8303B0FBF3F081
:1028B80040F4404000E00120C8612268E169236AD1
:1028C8000B43136022682169E3680B439360226815
:1028D8006169A3690B43D3602268136843F001035D
:1028E800136000202064202384F83D30206384F89E
:1028F8003E0038BD0120704783DE1B43A0860100DF
:10290800D34D62102DE9F843044601680B6923F49E
:102918004052C36813430B610068C36823F416422E
:1029280022F00C02A1682369194363691943E3691A
:102938000B431343C36021684B6923F44072A369B6
:1029480013434B61E369B3F5004F40F0BB80276840
:1029580003F1804303F510439F4203D003F58063DE
:102968009F4257D1FFF7C0FE00EB800000EB8000CC
:1029780065686D00B0FBF5F5AB4EA6FB05356D0936
:102988002D01FFF7B1FE00EB800000EB80006368CB
:102998005B00B0FBF3F9FFF7A7FE00EB800000EB4C
:1029A800800063685B00B0FBF3F3A6FB03235B09BD
:1029B8004FF0640808FB1393DB003233A6FB0323B4
:1029C8005B095B0003F4F8731D44FFF78DFE00EB11
:1029D800800000EB800063685B00B0FBF3F9FFF751
:1029E80083FE00EB800000EB800063685B00B0FBB7
:1029F800F3F3A6FB03235B0908FB13984FEAC80807
:102A080008F13208A6FB0836C6F342163544BD6005
:102A1800BDE8F883FFF758FE00EB800000EB80006C
:102A280065686D00B0FBF5F57F4EA6FB05356D09B1
:102A38002D01FFF749FE00EB800000EB8000636882
:102A48005B00B0FBF3F9FFF73FFE00EB800000EB03
:102A5800800063685B00B0FBF3F3A6FB03235B090C
:102A68004FF0640808FB1393DB003233A6FB032303
:102A78005B095B0003F4F8731D44FFF725FE00EBC8
:102A8800800000EB800063685B00B0FBF3F9FFF7A0
:102A98001BFE00EB800000EB800063685B00B0FB6E
:102AA800F3F3A6FB03235B0908FB13984FEAC80856
:102AB80008F13208A6FB0836C6F342163544BD6055
:102AC800BDE8F8832668594B9E4203D003F580631E
:102AD8009E4254D1FFF708FE00EB800000EB800017
:102AE8006568AD00B0FBF5F54F4FA7FB05356D09DF
:102AF8002D01FFF7F9FD00EB800000EB8000636813
:102B08009B00B0FBF3F8FFF7EFFD00EB800000EB54
:102B1800800063689B00B0FBF3F3A7FB03235B090A
:102B28004FF0640909FB13831B013233A7FB03230E
:102B38005B0903F0F0031D44FFF7D6FD00EB8000AE
:102B480000EB800063689B00B0FBF3F8FFF7CCFD57
:102B580000EB800000EB800063689B00B0FBF3F3A0
:102B6800A7FB03235B0909FB13831B013233A7FB74
:102B78000323C3F343131D44B560BDE8F883FFF78F
:102B8800A3FD00EB800000EB80006568AD00B0FBA2
:102B9800F5F5254FA7FB05356D092D01FFF794FDC8
:102BA80000EB800000EB800063689B00B0FBF3F84B
:102BB800FFF78AFD00EB800000EB800063689B0054
:102BC800B0FBF3F3A7FB03235B094FF0640909FB90
:102BD80013831B013233A7FB03235B0903F0F003C4
:102BE8001D44FFF771FD00EB800000EB8000636877
:102BF8009B00B0FBF3F8FFF767FD00EB800000EBEC
:102C0800800063689B00B0FBF3F3A7FB03235B0919
:102C180009FB13831B013233A7FB0323C3F34313BD
:102C28001D44B560BDE8F8831F85EB5100100140D5
:102C380068B310B5044690F8393013F0FF0F04D18B
:102C4800002380F8383000F02DFB242384F8393035
:102C58002268D36823F40053D3602046FFF752FE5E
:102C68002268136923F4904313612268536923F09F
:102C78002A0353612268D36843F40053D3600020C9
:102C8800E063202384F8393084F83A3010BD0120FD
:102C9800704700BF484B5A6822F440325A6059685E
:102CA80042680A435A600268536823F48073536089
:102CB80002685368016943EA012353600268536854
:102CC80023F0407353600268516883680B43536074
:102CD8000268936823F40063936002689168C3688C
:102CE8000B439360826A354B9A4214D0026893680A
:102CF80023F07063936002689168836A0B43936062
:102D08000268936823F04053936002689168C36A2D
:102D18000B43936009E00268936823F07063936043
:102D28000268936823F0405393600268936823F025
:102D38000203936002689368816943EA41039360E0
:102D4800036A8BB10268536843F4006353600268F6
:102D5800536823F46043536001684A68436A013B3F
:102D680042EA43334B6004E00268536823F400638B
:102D780053600268D36A23F47003D3620168CA6A95
:102D8800C369013B42EA0353CB620268936823F4A8
:102D98000073936002689368016B43EA4123936070
:102DA8000268936823F480639360026893684169BA
:102DB80043EA812393607047002301400100000F1C
:102DC80028B310B50446036C23B9436480F83C303B
:102DD80000F014F9236C13F0100F13D1236C23F4B3
:102DE800885323F0020343F0020323642046FFF7CD
:102DF80051FF00206064236C23F0030343F00103B8
:102E0800236400E00120002384F83C3010BD012039
:102E1800704700BF30B482B00023019390F83C3073
:102E2800012B00F0B180012380F83C300B68092B9E
:102E380017D90568EA689BB203EB43031E3B0724D6
:102E480004FA03F322EA0303EB600468E5688A687E
:102E58000B8803EB43031E3B02FA03F32B43E360A7
:102E680013E005682A699BB203EB4303072404FABD
:102E780003F322EA03032B61046825698B680A8837
:102E880002EB420293402B4323614B68062B16D872
:102E980005686A6B03EB8303053B1F2404FA03F3FD
:102EA80022EA03036B630468656B4B6803EB8303D7
:102EB800053B0A8802FA03F32B4363632EE00C2BCD
:102EC80016D805682A6B03EB8303233B1F2404FAF7
:102ED80003F322EA03032B630468256B4B6803EBB7
:102EE8008303233B0A8802FA03F32B43236315E089
:102EF8000568EA6A03EB8303413B1F2404FA03F3E2
:102F080022EA0303EB620468E56A4B6803EB830378
:102F1800413B0A8802FA03F32B43E36202681C4B25
:102F28009A4207D10B68122B04D11A4A536843F40A
:102F3800800353600268164B9A4220D10B68103BFD
:102F4800012B1CD8134A536843F4000353600B68E1
:102F5800102B14D1104B1B6802F1467202F52E3269
:102F680002F28332A2FB03239B0C03EB83035A0078
:102F78000192019B1BB1019B013B0193F9E70023DF
:102F880080F83C30184600E0022002B030BC7047A0
:102F980000200140002301400800002008B503205C
:102FA800FFF7B2FB002211466FF00B00FFF7BEFBE4
:102FB800002211466FF00A00FFF7B8FB0022114605
:102FC8006FF00900FFF7B2FB002211466FF0040012
:102FD800FFF7ACFB002211466FF00300FFF7A6FBDA
:102FE800002211466FF00100FFF7A0FB00221146F6
:102FF8004FF0FF30FFF79AFB08BD00BF02680F4B88
:103008009A421AD100B587B00021009103F58C339C
:103018005A6C42F480725A645B6C03F480730093B8
:10302800009B0F23019303230293039101A90448F2
:10303800FEF770FF07B05DF804FB70470020014001
:10304800000802400268124B9A4220D100B587B0AE
:103058004FF4406301931223029301230393032344
:103068000493042305930DEB03010A48FEF752FF6E
:1030780000230093084B1A6C42F480021A641B6CFC
:1030880003F480030093009B07B05DF804FB7047CE
:103098000058004000040240003802400368B3F1C1
:1030A800804F1CD100B587B0002300930C4A116CE7
:1030B80041F001011164126C02F001020092009AC1
:1030C800032201920222029203930493012305939F
:1030D80001A90448FEF71EFF07B05DF804FB70471E
:1030E800003802400000024000B58BB00368274A50
:1030F800934218D10023019302F50D32116C41F06F
:1031080002011164126C02F002020192019AC022BB
:1031180005920222069207930893099205A91C4872
:10312800FEF7F8FE2EE01B4A93420CD100230293CF
:10313800194B1A6C42F004021A641B6C03F0040366
:103148000293029B1EE0154A93420CD1002303937D
:10315800114B1A6C42F008021A641B6C03F0080346
:103168000393039B0EE00E4A93420BD10023049372
:10317800094B5A6C42F002025A645B6C03F002037A
:103188000493049B0BB05DF804FB00BF00040040EF
:10319800000802400008004000380240000C0040CF
:1031A8000004014082B00368104A93420CD1002306
:1031B80000930F4B1A6C42F080021A641B6C03F0E8
:1031C80080030093009B0EE00A4A93420BD1002330
:1031D8000193074B1A6C42F480721A641B6C03F457
:1031E80080730193019B02B0704700BF001C004030
:1031F800003802400020004000B587B00368224A2A
:1032080093420CD1012301930223029300220392DB
:103218000492059301A91D48FEF77CFE31E01C4A83
:1032280093420DD14FF4707301930223029300224D
:1032380003920492059301A91448FEF76BFE20E05F
:10324800144A93420CD10C230193022302930022C7
:1032580003920492059301A90F48FEF75BFE10E064
:103268000E4A93420DD14FF4407301930223029307
:103278000023039304930323059301A90848FEF749
:1032880049FE07B05DF804FB00040040000402405A
:1032980000080040000C004000000240000401400B
:1032A800000802400268124B9A421FD100B587B04D
:1032B800002300930F4B5A6C42F010025A645B6C67
:1032C80003F010030093009B4FF4C06301930223A3
:1032D800029301230393032304930723059301A96E
:1032E8000548FEF717FE07B05DF804FB704700BFFE
:1032F800001001400038024000000240704700BF43
:10330800FEE700BFFEE700BFFEE700BFFEE700BF25
:10331800704700BF704700BF704700BF08B5FEF791
:10332800E7FDFFF75DFA08BD0F49D1F8883043F48F
:103338007003C1F888300D4B1A6842F001021A6018
:10334800002098601A6822F0847222F480321A6091
:10335800074A5A601A6822F480221A60D8604FF02F
:1033680000638B60704700BF00ED00E0003802404A
:1033780010300024DFF834D0002103E00C4B5B58F8
:10338800435004310B480C4B42189A42F6D30B4A6F
:1033980002E0002342F8043B094B9A42F9D3FFF7B5
:1033A800C3FF00F017F8FEF7E5FA704700000220A7
:1033B800B4370008000000207000002070000020D2
:1033C80014030020FEE708B5062000F05FF801208E
:1033D80000F088F870B50E4B0E4CE41AA4100025C6
:1033E8001E46A54204D056F8253098470135F8E71F
:1033F80000F07AF8084C094BE41AA41000251E4680
:10340800A54204D056F8253098470135F8E770BD35
:10341800AC370008AC370008B0370008AC370008F4
:1034280010B5431E0A44914204D011F8014B03F829
:10343800014FF8E710BD1F2938B504460D4604D9D9
:10344800162303604FF0FF3038BD426C12B152F8BA
:1034580021304BB9204600F033F82A460146204671
:10346800BDE8384000F01AB8012B0CD0591C03D124
:1034780016230360012038BD0024284642F8254061
:103488009847204638BD002038BD0000024B014651
:103498001868FFF7D0BF00BF6C00002038B5074C94
:1034A8000023054608461146236000F013F8431C24
:1034B80002D1236803B12B6038BD00BF1003002080
:1034C80000F000B8024B58221A604FF0FF307047E6
:1034D80010030020024B58221A604FF0FF3070474B
:1034E80010030020FEE700BFF8B500BFF8BC08BC19
:1034F8009E467047F8B500BFF8BC08BC9E467047AA
:103508005372632F6D61696E2E6370700000000046
:10351800000000000000000001020304060708097B
:08352800000000000102030491
:1035300008B10181B0B000840000000008B1018131
:10354000B0B000840000000008B10181B0B0008478
:103550000000000008B10181B0B00084000000004C
:1035600008B10181B0B000840000000008B1018101
:10357000B0B000840000000008B10181B0B0008448
:103580000000000008B10181B0B00084000000001C
:1035900008B10181B0B000840000000008B10181D1
:1035A000B0B000840000000008B10181B0B0008418
:0435B0000000000017
:1035B40060CCFF7F01000000D8CFFF7FB0A902805C
:1035C40070D0FF7FB0B0A880C0D0FF7F01000000A2
:1035D400CCD0FF7FB0B0AA8004D1FF7FAE71B2809F
:1035E400D0D1FF7F01000000CCD1FF7FAB3F3880FA
:1035F40024D2FF7F0100000030D2FF7FB0B0AA8048
:103604006CD2FF7F0100000020D3FF7FAB0EB2809D
:1036140088D3FF7FB0AF0A805CD6FF7F0100000033
:1036240060D6FF7FAB3F0480A8D8FF7F0100000075
:1036340084DAFF7F0084048098DAFF7F01000000B1
:1036440094DAFF7FB0AD048030DDFF7FB0A8038043
:1036540050DDFF7F44FFFF7F54DDFF7F48FFFF7F86
:1036640060DDFF7F010000006CDDFF7FB0A90880F2
:1036740000DEFF7F01000000FCDDFF7FB0FEFF7F66
:1036840038DEFF7F0084048098DEFF7F00840C8096
:10369400F4DEFF7F00840A807CDFFF7F00841080DB
:1036A40034E0FF7F00841280D0E0FF7F8CFEFF7F38
:1036B40004E1FF7F90FEFF7F2CE1FF7F94FEFF7FFC
:1036C40054E1FF7F00840A8008E2FF7F00841480B5
:1036D400A8E2FF7F88FEFF7FD8E2FF7F01000000A1
:1036E40048E5FF7FB0B0A880B0E5FF7FAB08B180AC
:1036F40044E6FF7F010000007CE7FF7FB0B0A880B4
:10370400C0E7FF7F64FEFF7FECE7FF7F010000005E
:10371400D4E9FF7FB0AA0180A8EDFF7F010000007B
:1037240040EEFF7FB0B0AA8098EFFF7F0100000059
:10373400B4F0FF7F40FEFF7FB4F0FF7FA908B180A3
:10374400C8F1FF7FAD08B180ECF4FF7FB0B0A88072
:1037540048F5FF7F010000006CF6FF7FB0B0A88041
:10376400B8F6FF7F0100000038F8FF7F14FEFF7FEA
:1037740090F8FF7F0084068074F9FF7F00840A803C
:1037840028FAFF7F0100000074FAFF7F008406809E
:1037940070FBFF7F0100000088FBFF7FF0FDFF7FCF
:0837A4008CFBFF7F0100000017
:0437AC00AD01000863
:0437B0008901000883
:1037B40010000000010000000024F40000000000DC
:1037C40000000000000000000000000000000000F5
:1037D40000000000000000000000000000000000E5
:1037E40000000000000000000000000000000000D5
:1037F40000000000000000000000000000000000C5
:1038040000000000000000000000000000000000B4
:103814000000000000000000000000000C00002078
:040000050800337D3F
:00000001FF
